:020000041000EA
:1000000000B5324B212058609868022188439860DF
:10001000D860186158612E4B002199600221596106
:100020000121F02299502B49196001219960352056
:1000300000F044F80222904214D00621196600F024
:1000400034F8196E01211966002018661A6600F04E
:100050002CF8196E196E196E052000F02FF8012189
:100060000842F9D1002199601B49196000215960AB
:100070001A491B48016001219960EB211966A021F2
:10008000196600F012F800219960164914480160C1
:100090000121996001BC002800D000471248134993
:1000A000086003C880F30888084703B5996A0420EC
:1000B0000142FBD001200142F8D103BD02B5186610
:1000C0001866FFF7F2FF186E186E02BD00000240BE
:1000D000000000180000070000035F00212200005C
:1000E000F4000018222000A00001001008ED00E03C
:1000F00000000000000000000000000074B24E7A12
:1001000000200420F7010010C3010010C5010010F9
:10011000C1010010C1010010C1010010C101001097
:10012000C1010010C1010010C1010010C701001081
:10013000C1010010C1010010C9010010CB01001065
:10014000CD010010CD010010CD010010CD01001037
:10015000CD010010CD010010CD010010CD01001027
:10016000CD010010CD010010CD010010CD01001017
:10017000CD010010CD010010CD010010CD01001007
:10018000CD010010CD010010CD010010CD010010F7
:10019000CD010010CD010010CD010010CD010010E7
:1001A000CD010010CD010010CD010010CD010010D7
:1001B000CD010010CD010010CD010010CD010010C7
:1001C00000BE00BE00BE00BE00BE00BE00F04BF888
:1001D000103800BEF2EB88715CA0001084A0001003
:1001E0003402001090A31AE700202149086006C8D5
:1001F00081F3088810471F48006800282FD10DA4FC
:100200000ECC002902D000F012F8F9E71A491B4A77
:10021000002000E001C19142FCD1194988471949E9
:1002200088471949884700BEFDE701C901C29A42C3
:10023000FBD3704784A00010C000002034050020CC
:10024000F8A400100000042000000420F8A400100E
:1002500000100420001004200000000070470B482C
:1002600004F0D4F80047EFF30580C0B270470000F7
:1002700008ED00E0000000D0380500200414002044
:10028000392D001081030010F52C00105756000086
:1002900006005250ABB36053EC970010060052506A
:1002A000861C0302FC970010060052505422A29DA7
:1002B0000098001005005250DE65F468F8A40010A4
:1002C000F8B5C04610B5064C2378002B07D1054B76
:1002D000002B02D0044800E000BF0123237010BDB2
:1002E000580700200000000020850010044B10B5C6
:1002F000002B03D00349044800E000BF10BDC046F6
:10030000000000005C0700202085001010B5D023FD
:100310001B061B68002B0BD0084B1A6A120104D471
:100320001B6A1B0F08221A4204D000F0DFF810BD30
:10033000034BF2E700F048FCF9E7C04630410140CA
:1003400000410140F0B5C64600B584B004000E007F
:1003500017001D0001F032FE8046E117FA229200DC
:100360000023200004F0EAFE02000B000295019732
:100370000096404601F06AFF04B080BCB846F0BD6C
:1003800070B505F0B1F9444802F058F8434805F05B
:100390006DF901F0F7FD01F011FE01F055FF0100CC
:1003A0003F4805F095F900F0EBFA3E4C200005F0CF
:1003B0005DF900F011FB200005F058F900F0B4FAE7
:1003C000200005F053F9384B00223849FA20FFF796
:1003D000B9FF002853D0364805F048F900F0D8F8A6
:1003E000344B002234491920FFF7ACFF00284BD0D2
:1003F000324805F03BF9324B002232491E20FFF70C
:10040000A1FF002844D0274805F030F92E4E70781F
:1004100001220C2100F05AFE2C4D687801220C219B
:1004200000F054FE2A4C607801220C2100F04EFEB0
:1004300001220821062000F049FE012208210720A0
:1004400000F044FE234805F011F973786A7860786B
:10045000134303430F2018431F4900F00BFE1F48AE
:1004600005F004F91E4805F001F901210D2000F006
:100470004DFF1C4805F0FAF800F072FAFEE71A4842
:1004800005F0F4F8012070BD174805F0EFF8F9E722
:10049000154805F0EBF8F5E710270000208500105F
:1004A0003085001040850010100700205505001011
:1004B0005885001028070020A90800107485001036
:1004C000400700206D0F001050060020900600200D
:1004D000D0060020908500100D030010A4850010A8
:1004E000BC850010D48500104485001010B5D023C1
:1004F0001B061B68002B0FD0124B1B6A1B010DD46F
:10050000D0231B061B68002B11D00E4B1B6A1B0F40
:1005100008221A420DD110BD0B4BEEE70821062030
:1005200000F0AEFD094A136801331360E8E7064B9B
:10053000ECE70821072000F0A3FD054A136801330A
:100540001360E8E73041014000410140040D002004
:10055000080D002010B5094B1A689100084A116077
:1005600000201860074B1A689200074C2260186040
:10057000064805F0ADF8012010BDC046040D00206E
:10058000BC130020080D0020C0130020E4850010DB
:1005900010B50421082000F035FD0421092000F0E9
:1005A00031FD0F4B0F4A1A660F4B1A680F49086846
:1005B0001204130C43401B041B0C0D4A13600D4B1B
:1005C0001B681B0409684B401B0C1B0413600A4B7F
:1005D0001A6801239343094A1360012010BDC046E5
:1005E0000000054010270000200400205C000540AA
:1005F0005C100540240400205000054050100540C8
:10060000F0B5DE4657464E464546E0B587B0424B0C
:100610001B689A4601F0AEFF06000F1E00DA72E07A
:100620003E4B1A685B68801A9941FA2292000023B7
:1006300003F066FF8046049106245346E41A050041
:100640006543374B1A68944665441D60200004F0EA
:10065000BBFD344904F0AFFD8146280004F0B4FD31
:10066000314904F0A8FD011C484604F089FD0590BD
:100670002E4B1B689B46E01A04F0A6FD2C4904F0A3
:100680009AFD81464046049904F0FCFD011C484651
:1006900004F07BFD04F0BAFD04F096FD059904F02A
:1006A0006FFD04F0B3FD234B1B68C018224B98422A
:1006B0002FD9204B204A1A601E4B99461B68039382
:1006C000029443460093049B019353465A462900E3
:1006D0001A4804F0FDFF4B461A68194B19681204BA
:1006E000130C4B401B041B0C164A13600B4B1E6073
:1006F0005F600E4B1C60012007B0F0BCBB46B246E9
:10070000A946A046F0BD104B104A3F21104802F008
:10071000F5FA084B1860CFE7BC130020380600201C
:100720007C110020000020406F12033A8411002049
:100730000AD7233B2004002010270000A4860010C5
:100740005C0005405C1005402C86001054870010AA
:1007500048860010F0B5DE4657464E464546E0B5A1
:1007600087B0424B1B689A4601F004FF06000F1E3B
:1007700000DA71E03E4B1A685B68801A9941FA22F0
:100780009200002303F0BCFE8046049106245346E9
:10079000E41A05006543374B1A68944665441D60AA
:1007A000200004F011FD344904F005FD81462800C5
:1007B00004F00AFD314904F0FEFC011C484604F037
:1007C000DFFC05902E4B1B689B46E01A04F0FCFCF6
:1007D0002C4904F0F0FC81464046049904F052FD97
:1007E000011C484604F0D1FC04F010FD04F0ECFCC0
:1007F000059904F0C5FC04F009FD234B1B68C018E3
:10080000224B98422ED9204B204A1A601E4B994603
:100810001B680393029443460093049B0193534641
:100820005A4629001A4804F053FF4B461B681B0424
:10083000184A126853401B0C1B04174A13600C4BD8
:100840001E605F600E4B1C60012007B0F0BCBB4611
:10085000B246A946A046F0BD104B114A3F211148AF
:1008600002F04CFA084B1860D0E7C046C0130020D5
:100870004006002080110020000020406F12033A43
:10088000881100200AD7233B2404002010270000F1
:10089000FC8600105C0005405C1005402C860010B2
:1008A000548700104886001010B5FFF753FFFFF77C
:1008B000A7FE012010BD000010B50023114A1360EF
:1008C000114A136001F056FE00290FDB0F4B186030
:1008D000596000230E4A13600E4A136001F04AFE6D
:1008E000002909DB0C4B1860596010BD0B4B0C4AFA
:1008F0003F210C4802F002FA084B094A3F210948FF
:1009000002F0FCF97C110020841100203806002040
:100910008011002088110020400600202C86001045
:10092000548700104886001010B5022000F0DEFB4E
:10093000032000F0DBFB042000F0D8FB052000F0D2
:10094000D5FBD0231B0604245C62082058621021CA
:10095000596220225A629C61986199619A6110BD26
:1009600010B5FFF7A9FFD0231B0604229A610432B9
:100970005A6108329A6110325A610020002110BD7C
:1009800010B5124A0E231370013353701049033B04
:100990000B7001334B700F48033B037001334370FE
:1009A0002F334324D4540934CC540634C454002384
:1009B00083708B70937043764B765376193C035556
:1009C0000B55135503760B76137610BD5006002099
:1009D00090060020D006002010B50E2000F086FB07
:1009E0000F2000F083FB0C2000F080FB0D2000F0B6
:1009F0007DFB0A2000F07AFB0B2000F077FB19202A
:100A000000F074FBD0231B068022D2015A628022A0
:100A100012029A62802252015A62802292019A62E4
:100A20008022D2005A62802212019A6280229204AD
:100A30005A6210BD70B504003923C35C1D2B14D855
:100A40008178C218917601333922835470BD5A1CC3
:100A5000A118897EE318997613001C2BF7DDA57881
:100A60003723E5540023002005E00023F5E7E218D2
:100A7000927E801801331D2BF9DD1E2103F0F2FC5C
:100A8000C3B263763A22A15C2A00024804F020FE39
:100A9000DCE7C0466C87001001238340D022120699
:100AA0005361704701238340D0221206936170473F
:100AB00010B50400094B1878FFF7F4FF084B1878BD
:100AC000FFF7F0FF074B1878FFF7ECFF01F076FA1D
:100AD000210001F041FB0020002110BD5006002044
:100AE00090060020D006002001238340D022120669
:100AF0009361704770B504000D4B5878D0231B06E6
:100B00005B68C340DB0703D5094B1B7E002B07D076
:100B100001F054FA210001F01FFB0020002170BDFC
:100B2000034D01332B76FFF7DFFF0023AB70EFE7B8
:100B30005006002070B504000D4B5878D0231B06DA
:100B40005B68C340DB0703D5094B1B7E002B07D036
:100B500001F034FA210001F0FFFA0020002170BDFD
:100B6000034D01332B76FFF7BFFF0023AB70EFE798
:100B70009006002070B504000D4B5878D0231B065A
:100B80005B68C340DB0703D5094B1B7E002B07D0F6
:100B900001F014FA210001F0DFFA0020002170BDFD
:100BA000034D01332B76FFF79FFF0023AB70EFE778
:100BB000D006002010B50C003A2103F07BFCA07099
:100BC0002000FFF737FF10BD70B584B0CC4B5978CB
:100BD000D0231B061B68002B00D1C2E0C94BCA08FA
:100BE00008329200D25807230B409B00DA401307CB
:100BF00000D4CAE0C24B5878082100F041FA01F055
:100C0000B9FC002900DAAEE0BD4B9860D96001F074
:100C1000D5F9060001F0AEFC04000D1E00DAA8E0D4
:100C20000100B94A002312196B419D4202D804D138
:100C3000914202D901225242D317002B00DA9EE0E2
:100C40000121029100210191B0490091300001F091
:100C5000CBF9AF4B5978D0231B061B68002B00D172
:100C6000CBE0A84BCA0808329200D25807230B40A9
:100C70009B00DA40130700D4D3E0A54B5878082135
:100C800000F0FEF901F076FC002900DAB7E0A04B95
:100C90009860D96001F092F9060001F06BFC040045
:100CA0000D1E00DAB1E00100974A002312196B41D2
:100CB0009D4202D804D1914202D901225242D31757
:100CC000002B00DAA7E00121029100210191914956
:100CD0000091300001F088F98F4B5978D0231B0622
:100CE0001B68002B00D1D4E0864BCA080832920062
:100CF000D25807230B409B00DA40130700D4DCE0F6
:100D0000854B5878082100F0BBF901F033FC00292D
:100D100000DAC0E0804B9860D96001F04FF906001E
:100D200001F028FC04000D1E00DABAE00100764A4A
:100D3000002312196B419D4202D804D1914202D97D
:100D400001225242D317002B00DAB0E001210291B8
:100D50000021019171490091300001F045F904B082
:100D600070BD6F4B3BE76F4B6F4A3F216F4801F0FF
:100D7000C5FF6C4B6C4A3F216C4801F0BFFF694BCB
:100D8000694A3F21694801F0B9FF5D4B5978D0238A
:100D90001B061B68002B18D05A4BCA080832920059
:100DA000D25807230B409B00DA40530700D450E78A
:100DB000534C6078042100F063F9237E002B06D0A9
:100DC0004F4B00221A765A76C9E7554BE5E701F0FA
:100DD000D1FB02000B1E0ADB49490A614B618C689A
:100DE000CD68121BAB411000FFF7E4FE31E74D4B1D
:100DF0004D4A3F214D4801F081FF494B32E7494BB5
:100E0000494A3F21494801F079FF464B464A3F2174
:100E1000464801F073FF434B434A3F21434801F0EA
:100E20006DFF3B4B5978D0231B061B68002B18D055
:100E3000344BCA0808329200D25807230B409B005B
:100E4000DA40530700D447E7314C6078042100F0C2
:100E500017F9237E002B06D02D4B00221A765A76E6
:100E60007DE72F4BE5E701F085FB02000B1E0ADB57
:100E700027490A614B618C68CD68121BAB41100099
:100E8000FFF798FE28E7274B274A3F21274801F024
:100E900035FF234B29E7234B234A3F21234801F009
:100EA0002DFF204B204A3F21204801F027FF1D4BFA
:100EB0001D4A3F211D4801F021FF174B5978D023CF
:100EC0001B061B68002B18D00E4BCA080832920074
:100ED000D25807230B409B00DA40530700D43EE76B
:100EE0000D4C6078042100F0CBF8237E002B1FD03E
:100EF000094B00225A761A7631E7094BE5E7C046DE
:100F00005006002030410140B80B0000F50A0010E7
:100F100090060020350B0010D0060020750B001045
:100F2000004101402C860010948700104886001074
:100F300001F020FB02000B1E0ADB08490A614B612D
:100F40008C68CD68121BAB411000FFF733FE06E73B
:100F5000034B044A3F21044801F0D0FED006002094
:100F60002C860010948700104886001070B584B05D
:100F70001C4B1878FFF790FD1B4B1878FFF78CFD82
:100F80001A4B1878FFF788FD01F018F8060001F0F9
:100F9000F1FA04000D1E19DB154A002312196B41EA
:100FA000994202D804D1904202D901225242D31769
:100FB000002B11DB01210291002101910D490091CB
:100FC000300001F011F8012004B070BD0A4B0B4A4B
:100FD0003F210B4801F092FE074B084A3F21084889
:100FE00001F08CFE5006002090060020D006002064
:100FF00010270000B10A00102C8600109487001002
:101000004886001010B58300084A944663441C6863
:1010100040226240C02414408022520113431C60CD
:10102000C000034B9C466044416010BD04C00140B9
:101030000040014070B5D0231B061B689D00094C81
:101040002C59204207D19B002043064C18510D20FB
:1010500000F0B0F970BD044B044ACC21044801F003
:101060004DFEC046A4110020AC8700102C88001053
:10107000D887001010B58022FFF7DCFF10BD0000FC
:10108000072303409B00C00899403C308000014B7F
:10109000C150704700400140F8B507000C00160031
:1010A0001D00FFF7EDFFFB089B00ED1807203840FF
:1010B00080008440002E04D080239B011D432C60BF
:1010C000F8BDC0239B011D432C60F9E710B5D02368
:1010D0001B061B68002B03D0024BFFF7DDFF10BD82
:1010E000014BFAE7304101400041014010B50123B6
:1010F0008340D0221206936293610521FFF782FF9D
:1011000010BD0000EFF3108072B6034B1B68002B7C
:10111000FBD0BFF35F8F70472C0100D0BFF35F8F10
:10112000024B00221A6080F3108870472C0100D017
:10113000F8B506000C001500FFF7E4FFE308F71808
:10114000F15C07222240012393400B4205D1DBB220
:101150000B433B70FFF7E2FFF8BD2100280001F0D0
:1011600067FEF0B583B00600019114001F00FFF781
:10117000C9FF00E00134BC420CD8E308F518F35C69
:101180000721214001228A401A42F3D1D2B21A43E8
:101190002A7001E001246442FFF7C0FF002C02DB4B
:1011A000200003B0F0BD019B002BF9D0089801F09E
:1011B0003FFE0000034B1B6802201840431E98416D
:1011C000C0B2704700C00640002307E0054A9A18E5
:1011D0009200BFF35F8F0021116001331F2BF5D9FF
:1011E0007047C04640000034054A1078431CDBB20B
:1011F0001370172B02D9130010221A707047C046C3
:101200002804002000B583B00100044B00931F2385
:1012100018220348FFF7A5FF03B000BD6088001047
:10122000D80C0020074B9B68103080001950BFF38A
:101230005F8FBFF35F8F044B0021196082F310882A
:101240007047C04600ED00E0240100D010B5091A37
:10125000081F0A4B9C466144094A914208D8C307BB
:1012600006D440104005400D064B184380B210BD17
:10127000054B064A9921064801F040FDFC07000095
:10128000FE0F000000E0FFFF7C880010F08A0010D5
:10129000AC88001010B5091A04394C08090B08D1A4
:1012A0004905490D064A11430180064B23434380FB
:1012B00010BD054B054AA121054801F01FFDC046A0
:1012C00000F0FFFF00F8FFFF00890010C48A001043
:1012D000AC88001001238340034A10681840431E65
:1012E0009841C0B27047C04600E100E0002904D038
:1012F000034B1860034B18607047034B1860FBE703
:1013000080E200E000E100E080E100E010B50123B0
:1013100083401800FFF7EAFF10BD0000012383405F
:10132000014A13607047C04600E200E0024B9B6830
:1013300010308000C058704700ED00E010B5FFF796
:10134000F5FF002805D0054BC01A2F2803D801202F
:1013500010BD0020FCE70020FAE7C0462C04002066
:1013600070B504000D00EFF3108672B60C4B1B68CD
:10137000002BFBD0BFF35F8F2000FFF7D7FF094B97
:10138000984201D0A84205D1320029002000FFF781
:1013900049FF70BD044B054A7C21054801F0AEFCB5
:1013A000240100D0CD01001010890010248B001002
:1013B000AC880010F0B5DE4657464E464546E0B5CF
:1013C00089B0814601911500EFF3108A72B6744B13
:1013D0001B68002BFBD0BFF35F8F724B0027DF57DA
:1013E000002F40DB7C00E419A4006F48241806227B
:1013F000A2566C4B1A706D4B9A684B4610339B008B
:10140000D35898461E001B1A2F2B38D9684B984585
:101410002FD105AE674B33807B009B46D8198000E7
:10142000614B9846404402306349FFF70FFF7080DC
:10143000624BB380FF23B371F571019B07935F4447
:10144000BF0047440ECE0EC701231C43A0465246A0
:1014500041464846FFF7E6FE09B0F0BCBB46B2463F
:10146000A946A046F0BD564B564ACD21564801F03C
:1014700045FC564B534AD421534801F03FFCC0432E
:1014800040440C2103F016F8002912D101239E4399
:10149000B34633000026DA79AA4211D906215956FB
:1014A00000290CDB4A00521892001E003E4B9B188C
:1014B000F1E7474B434AE021434801F01FFC1E007F
:1014C000002E3BD005AB434A1A80813A5A8006234E
:1014D000F3560293002B18DABD20000205AB9B46A1
:1014E0009880029A9A71DD71019A0792301D21004D
:1014F000FFF7ACFEB080B7717B00DB199B002A4F71
:10150000FF185B4607CB07C7A1E77800C01980002A
:10151000254BC0180430321DB388D90A1C2907D1C5
:101520005B055915023149005118FFF78FFED5E7C9
:10153000294B2A4AA721244801F0E0FB05AE1D4BA8
:1015400033807B000293D8198000174A904602002E
:1015500042440392901C1849FFF778FE7080039A6A
:10156000101D5946FFF772FEB0801D4B5A4641468A
:10157000521A524153431B0DB371F571019A0792F0
:10158000029B9C466744BF0047440ECE0EC7114BDA
:101590005A461380813B538001231C43A04656E7E3
:1015A000240100D0FE1300202C04002000ED00E0F8
:1015B000CD01001000A1FFFF5C04002000BDFFFF73
:1015C000488900100C8B0010AC8800107089001046
:1015D00098890010014800000C8A0010FC8A001055
:1015E000AAAA0000F0B5CE46474680B583B00600F3
:1015F0000D00EFF3108872B6564B1B68002BFBD022
:10160000BFF35F8F544B9A6834001034A300D7584F
:10161000524B9F4207D0AF4200D199E00197504B07
:10162000FB1A2F2B09D9424639003000FFF7FAFD8B
:1016300003B0C0BCB946B046F0BD3000FFF74AFE6B
:10164000814600213000FFF761FEBFF35F8FFEF798
:101650000AFE002801D0844211D10123019C9C4341
:101660000022A368AB4212D00622A256002A0DDB4C
:1016700053009B189B002200394CE418F1E72C2101
:10168000384B394AFF31394801F038FB2200AB4270
:1016900057D106256557002D39DB6B005B199A0081
:1016A0002F4B9B189A68A260DA79E27106229A564B
:1016B000A2719B795BB2002B10DABD200002A080E2
:1016C0006B005B199B00264AD318294A117899713F
:1016D000157049463000FFF719FEA4E7201D6B0086
:1016E0005B199B001E4A9B181A1D9B88D90A1C294E
:1016F00007D15B055B15023359005118FFF7A6FDB2
:10170000DDE71C4B1C4AA721184801F0F7FA002816
:1017100012D1002A0ED0FF239371184B9380144AE4
:101720001378A371164B0E49641A644163431B0D71
:101730001370CEE7094FF2E7201D1249FFF7AAFD0B
:10174000C7E76021104B084AFF31084801F0D6FA7C
:10175000024F68E7240100D000ED00E0CD01001049
:101760002C040020248A0010DC8A0010AC880010B1
:10177000FE1300200C8A0010FC8A001000BDFFFF41
:10178000AAAA000066040020488A001070B5040070
:10179000012606432D4BF31A2F2B28D8FEF763FDA5
:1017A00000282BD0EFF3108C72B6294B1B68002B4E
:1017B000FBD0BFF35F8F274D22002449521A5241BC
:1017C00055432D0D6DB2244B9B6880001B58B342CE
:1017D0001BD00022032A32D853009B189B001B49C0
:1017E000CB189B795BB2AB421FD00132F2E7C2212A
:1017F0001A4B1B4A49001B4801F080FA88211A4BFA
:10180000174AFF31174801F079FA134B9B68174AC2
:101810001A50174B1A78A2711D70BFF35F8F0C4BD3
:1018200000221A608CF3108870BD080053009918CC
:1018300089004118FF268E710E4A8A80E9E7CC2183
:101840000D4B074A4900074801F058FA2C040020C4
:10185000240100D0AAAA000000ED00E0508A001088
:10186000A88A0010AC880010788A0010CD01001002
:10187000FE13002000BDFFFF848A00100022044BED
:1018800002E0044902C30132072AFAD97047C04670
:1018900000E400E08080808000B583B00100D023A8
:1018A0001B061B680648C018064B00930523002240
:1018B000FFF757FC002801DB1F23181A03B000BDF7
:1018C000F81300208C8A0010024B9C46614489006A
:1018D000016070474000003410B50C00CB688342B3
:1018E00007D108000B699847002809D02068616873
:1018F00010BD9621054B064A4900064801F0FEF945
:101900000023E36000200021F2E7C046408B001076
:10191000C88D0010548B001070B505000C00080035
:1019200000F01CFE200000F001FF0849200000F03C
:1019300041FEFFF759FC064B9C46604480006860FE
:101940002C75A400034BE55070BDC0465D1C001013
:1019500040000034941100200A4B1A68EFF3108104
:1019600072B61368002BFCD0BFF35F8F054B1B686A
:10197000BFF35F8F00221A6081F3108840BF002000
:1019800000217047B813002010B5002922D0036849
:101990001B7B99421ED8174B9C4661440901836802
:1019A0009C4661440C684968002A19D003681B7B77
:1019B0009A4215D883680F488446624412019A18E7
:1019C00010685368020001208B4201D80ED000201D
:1019D000C0B210BD084B094A3B21094801F08EF9FD
:1019E000054B064A3B21064801F088F9A242EFD890
:1019F000EDE7C046FFFFFF0FA08B0010308E0010F8
:101A0000548B001010B500291ED0037B99421BD8BF
:101A10004B005B18033B0468A4466344002919D0BB
:101A2000002A1DD0914221D0002A25D0047BA24259
:101A300022D8046850008018033820188170197863
:101A400000291FD11A7010BD104B114A682111488E
:101A500001F054F9104B114A6F310E4801F04EF964
:101A60000F4B0E4A70210B4801F048F90D4B0B4A01
:101A70007121084801F042F9044B054A68210548E4
:101A800001F03CF941701A70DDE7C046D48B0010BC
:101A90009C8E0010F08B0010508C0010788E00107F
:101AA0005C8C0010688C001070B506000D001400EE
:101AB000002914D0002A14D0806873689847002841
:101AC00006D0220029003000FFF79CFF280007E025
:101AD0002A0021003000FFF795FF200000E01000F1
:101AE00070BD0800FCE70000F0B583B0050000926F
:101AF00001930AAB1C780BAB1F78002C26D003682F
:101B00005A7B944207D10123002B19D1002C3BD1E1
:101B1000200003B0F0BD002C0CD01A7B944209D8F1
:101B20001A6863001B19033BD3189B78002BEBD07A
:101B30000123E9E73E4B3F4A68213F4801F0DEF8C8
:101B40003E4B3F4A65213F4801F0D8F803689C7B33
:101B5000002CDBD012D01A7B94420FD862001219ED
:101B6000033A19688C46624451789973002900D170
:101B7000D9730023937053701370C7E72C4B2D4A11
:101B800068212D4801F0BAF8002C3AD02B681B7B55
:101B90009C4236D82C4BE3181B01AA689446634438
:101BA000009A1A60019A5A60089A9A60099ADA6053
:101BB0002E68002C2BD030D0337B9C422DD8630074
:101BC0001B19033B32689446634400229A705A7092
:101BD0001A70717B22003000FFF766FF7073844239
:101BE00000D095E7287D009A019B00F02BFD061E92
:101BF00001D0002F17D00C9B002B00D188E71E705E
:101C000086E7124B124A3B210E4801F077F8114B40
:101C1000114AA521084801F071F8054B054A6821D1
:101C2000054801F06BF82868210000F033FFE2E777
:101C3000D48B00109C8E0010F08B0010808C001054
:101C4000A88E0010548B0010FFFFFF0FA08B001018
:101C5000308E0010508B00108C8E0010F0B5DE46D8
:101C600057464E464546E0B58BB009900023089391
:101C70008200B24BD658370032E0B14BB14A3F2117
:101C8000B14801F03BF8B14BB14A3B21B14801F0FA
:101C900035F8B14BB14A8C21AE4801F02FF8B04B6A
:101CA000AE4A9021AB4801F029F8A84BAD4A40213B
:101CB000A84801F023F82A686B68099800F0C2FC74
:101CC00000239A4698467B68BFF35F8F00221A6014
:101CD00086F310884346002B51D1002800D126E11D
:101CE00000F048FC02000B1EC7DB0020002106901C
:101CF00007917868EFF3108672B601680029FCD06E
:101D0000BFF35F8F396888464C7B002C32D0BAD045
:101D1000097B8C42B7D8944965182D01B9688C4667
:101D2000654428686968801A99410029C3DC01D19B
:101D30000028C0D10021404600F0A2FEA042A8D158
:101D40002A686B6806920793AB689846EB689A46D8
:101D50004346002BA3D0002CA7D03B681B7B9C42A2
:101D6000A3D8631EFA68D35C08931B02184338613A
:101D70000020A8E700239A4698460020A3E7089B86
:101D80001B022343994651461800C04705000E0028
:101D90007A68EFF3108B72B6136859424B41D9B28F
:101DA000002BF9D1BFF35F8F002E26DB002E52DD12
:101DB0003B69002B53D04B4572D100F0DBFB020096
:101DC0000B1E73DB0100180052197341984202D8B0
:101DD00004D1914202D901225242D317002B6BDB6E
:101DE0000021049101310391029451460191414631
:101DF00000913800FFF778FE49E03B69002BD5D011
:101E00004B451CD1069A079B10001900521BB34189
:101E1000994202D804D1904202D901225242D317EA
:101E2000002B12DB002104910131039102945146F1
:101E30000191414600913800FFF756FE27E04B4BD9
:101E4000464A9F21434800F059FF3D4B3D4A3F2100
:101E50003D4800F053FF002E01D1002DA8D13A6873
:101E6000002C45D0537B9C422CD1012100293FD12D
:101E7000D37B002B42D1D473002C52D03B681B7B08
:101E80009C424ED8FA68013C135D01331355002380
:101E90003B617A68BFF35F8F13608BF310881FE795
:101EA000324B2E4AA2212B4800F028FF244B254A12
:101EB0003F21254800F022FF214B224A3F212248A2
:101EC00000F01CFF002C0DD0137B9C420AD863004D
:101ED0001B19033B1068844663449B78002BC5D0D4
:101EE0000121C3E7224B234A6821234800F006FF63
:101EF000224B234AF621204800F000FF002B0AD095
:101F0000117B8B4207D85900CB18033B11688C46D4
:101F100063445C70AFE7164B164A6821164800F020
:101F2000EDFE0A4B0F4A40210A4800F0E7FE0BB0D5
:101F3000F0BCBB46B246A946A046F0BD94110020B5
:101F40002C860010FC8D001048860010A08B00101D
:101F5000308E0010548B0010A88C0010148E0010CE
:101F6000C08C0010548E0010FFFFFF0FCC8C0010AF
:101F7000D48B00109C8E0010F08B0010088D001088
:101F8000688E001010B50A4B5B68002B04D00A2144
:101F90000848FFF799FC10BD054C2300064A1021A4
:101FA000206800F08DFC03212000FFF7B5FCEEE770
:101FB00074040020B81300208919001010B5064BD6
:101FC0005B68002B01D0044810BD044B044A5C211F
:101FD000044800F093FEC046740400202C8D0010CD
:101FE0003C8E0010548B0010F0B5DE4657464E462E
:101FF0004546E0B58BB0804616001F00149B9A46FC
:10200000159B994616AB1B789B461F2302AA944644
:10201000634400221A7032E0002809D04246126858
:10202000127B904204D8421E4146C9688A5C48E04F
:10203000434B444A4021444800F060FE0798002B7F
:1020400075D05B46002B72D04946D04704000D0086
:1020500003000B4300D171E0002946DB00F08AFA4F
:1020600006000F1E55DB36196F41B94202D804D164
:10207000B04202D901267642F717002F4FDB4346C4
:102080005A68EFF3108472B6136859424B41D9B2C3
:102090000791002BF8D1BFF35F8F1F3302AA94463C
:1020A000634404930023039302934B4601935346E6
:1020B000009332003B004046FFF716FD031EABD1F4
:1020C000020041464968BFF35F8F00250D6084F32D
:1020D0001088002B29D01F2302A98C4663441B784B
:1020E000002BABD112021043A9E732003B00361B94
:1020F000AF41BB4202D804D1B24202D90126764296
:10210000F717002FBBDA114B114A3F21114800F09D
:10211000F5FD0E4B0E4A3F210E4800F0EFFD0B4B34
:102120000B4A3F210B4800F0E9FD012040420BB073
:10213000F0BCBB46B246A946A046F0BD0798F6E7FC
:10214000A08B0010548E0010548B00102C860010B1
:10215000FC8D001048860010F8B504004268EFF3CB
:10216000108572B6136858424341D8B2002BF9D19A
:10217000BFF35F8FCBB22268567BB3421BD10120E5
:10218000002848D0206988422BD0090AC9B2002B08
:102190002ED02068007B83422AD8581EE668305C27
:1021A00088422BD000206368BFF35F8F00221A6043
:1021B00085F31088F8BD002B0DD0167BB3420AD8EA
:1021C0005E00F618033E1768BC466644B678002EDB
:1021D000D6D00120D4E7134B134A6821134800F0EE
:1021E0008DFD8521124B134A4900134800F086FDEE
:1021F000124B134A4021104800F080FD19001000D6
:1022000000F048FC0028CED112210E4B094AFF31C4
:10221000094800F073FD23698B42C4D10023236178
:10222000C1E7C046D48B00109C8E0010F08B0010CC
:10223000508D0010E48D0010548B0010A08B001006
:10224000548E0010748D0010007D7047F0B585B07D
:102250000700100019000C9E13000B4301D1012050
:102260000021B7600A9B3361306071600B9B736122
:10227000CA1713005040040051400D00A41A9D419C
:1022800000F078F902000B1E1ADB01001800121989
:102290006B41984202D804D1914202D901225242A4
:1022A000D317002B12DB0121029101960A490091FC
:1022B0003800FFF799FEF060C043C00F05B0F0BDD5
:1022C000064B074A3F21074800F018FD034B044A1C
:1022D0003F21044800F012FDD91800102C86001090
:1022E000FC8D001048860010F0B587B006000F0086
:1022F000FDF7B9FF00281FD106246442E517A41991
:102300007D41BD4202D803D1B44201D90024002549
:10231000002D14DB0494059500F02CF902000B1E2F
:1023200013DBA41A9D41002D17DC14D030003900B6
:1023300000F02CF907B0F0BD234800F079FD234BE5
:10234000234A3F21234800F0D9FC204B204A3F215B
:10235000204800F0D3FC002CE8D0FFF72FFE00232C
:10236000029301931C4B0093049A059BFFF73CFEDC
:10237000002818DADAE7002300E00023002BD5D18B
:10238000164B1A68EFF3108172B61368002BFCD05D
:10239000BFF35F8F114B1B68BFF35F8F00221A6082
:1023A00081F3108820BF0499059A0D4B5B6A9A420D
:1023B000E3D80B48806A884203D29A42DBD00123DB
:1023C000DCE70123DAE7C046788D00102C86001088
:1023D000FC8D00104886001059190010B813002019
:1023E00000400540F8B504000D0000F0C3F80200FD
:1023F0000B1E10DB20002900801859418B4202D8A7
:1024000004D1824202D901204042C117002908DBD1
:10241000FFF76AFFF8BD064B064A3F21064800F069
:102420006DFC034B034A3F21034800F067FCC046A4
:102430002C860010FC8D00104886001010B5FA2282
:1024400092000023002102F079FEFFF7CBFF10BDC0
:1024500070B584B006000C00FFF7B0FD00230293B6
:102460000193194B009332002300FFF7BDFD051EB9
:1024700011DD20BFFFF7A2FD2900FFF76DFE134B12
:102480005B6A9C421BD8114A926AB2421AD29C42A1
:1024900013D0012014E00D4B5B6A9C4209D80B4A13
:1024A000926AB24207D29C4201D0012008E000208B
:1024B00006E0002004E0012002E0002000E000200F
:1024C00004B070BD0120FBE7591900100040054021
:1024D00070B5EFF305833F2018401038EFF3108CF0
:1024E00072B6194B1B68002BFBD0BFF35F8F012323
:1024F00019008140154A5163154A12781400C440EE
:10250000234214D0114B5C6A8300124D5B599C42EC
:1025100006D38300104C1B598A430D490A7007E00B
:102520000A4A031D9B0099589950002300E000239C
:10253000BFF35F8F044A002111608CF31088002BD9
:1025400000D0984770BDC046280100D0004005402B
:1025500002140020CC130020C80B002010B501008D
:10256000024A0348FEF7E4FD10BDC046C08E0010CD
:10257000FD130020044B5B6A034A906A1900536AFA
:102580009942F9D17047C04600400540084B5B6A4C
:1025900001E0074B5B6A8B42FBD301E0044B5B6AB3
:1025A0008B4203D1024B9B6A8342F7D37047C046EC
:1025B0000040054070B504000D00EFF3108672B6C0
:1025C0001B4B1B68002BFBD0BFF35F8F002D1CD073
:1025D0002000FEF7ABFE174B83420BD01900200002
:1025E000FEF7BEFE01212000FEF790FE0123A3406E
:1025F000114A1360A400114BE550BFF35F8F0C4BE1
:1026000000221A6086F3108870BDA2000B4B0021D7
:10261000D1500122A2400A490B7893430B7005491F
:102620002000FEF7DFFF00212000FEF76FFEE4E749
:10263000280100D0D124001038600540C80B0020CC
:1026400002140020F0B5DE4600B584B00400150089
:1026500001921E000293FFF78DFF03958E4202D870
:102660004ED185424CD9EFF3108B72B6274B1B68C5
:10267000002BFBD0BFF35F8F254A17780125A540BB
:10268000EBB23B431370234B5D63221D9200019913
:10269000D150A2002049029850501B6A2B4212D1FF
:1026A0001C4B1B6C2B4208D00020BFF35F8F174BD5
:1026B00000221A608BF3108823E0184B184AC121BE
:1026C000184800F01BFBFFF755FF8E4214D802D1CB
:1026D000039B834210D80E4B1B78BB420ED00D4B90
:1026E0001D625D631F2004400123A3400E4A136056
:1026F000074B1F701E38D8E70020D6E70120D4E72B
:10270000012004B080BCBB46F0BDC046280100D00B
:102710000214002000400540CC130020E48E00107D
:10272000608F0010088F001080E200E0EFF3108C43
:1027300072B60B4B1B68002BFBD0BFF35F8F0123DE
:102740008340084A136208490A789A430A70BFF323
:102750005F8F034B00221A608CF310887047C046CD
:10276000280100D0004005400214002010B50029C7
:102770001ED0037B99421BD84B005B18033B0468B7
:10278000A4466344002919D0002A1DD0914221D0CB
:10279000002A25D0047BA24222D804685000801869
:1027A000033820188170197800291FD11A7010BDC4
:1027B000104B114A6821114800F0A0FA104B114A41
:1027C0006F310E4800F09AFA0F4B0E4A70210B48F9
:1027D00000F094FA0D4B0B4A7121084800F08EFA74
:1027E000044B054A6821054800F088FA41701A70C8
:1027F000DDE7C046D48B00107C900010F08B0010F9
:10280000508C0010689000105C8C0010688C0010D8
:1028100070B506000D001400002914D0002A14D051
:10282000806873689847002806D02200290030008D
:10283000FFF79CFF280007E02A0021003000FFF787
:1028400095FF200000E0100070BD0800FCE70000CC
:1028500010B50023437301338373037BC3730123D8
:10286000027B9A4214D9002B0CD0027B934209D8E8
:102870005A00D218033A01688C4662440133DBB235
:102880005370EDE70B4B0C4A68210C4800F036FA08
:10289000002A09D0924207D8016853009A18033AD7
:1028A0008A180023537010BD024B034A6821034865
:1028B00000F024FAD48B00107C900010F08B0010F4
:1028C00010B5017342608360FFF7C2FF10BD0000C6
:1028D00070B50400081E00D170BD002934D0237BE0
:1028E000994231D84B005B18033B226894466344FD
:1028F0005A78002AF0D02DD0237B9A422AD8530050
:102900009B18033B21688C4663445D780021597015
:10291000002825D0237B984222D843001B18033B74
:1029200021688C4663440021597001002000FFF7A4
:102930006FFF060029002000FFF7CAFF02003100E8
:102940002000FFF765FFC7E7084B094A68210948DF
:1029500000F0D4F9054B064A6821064800F0CEF98C
:10296000024B034A6821034800F0C8F9D48B0010D9
:102970007C900010F08B001070B505000C00160064
:10298000002928D02DD0037B99422AD84B005B1810
:10299000033B0268944663445A78002A27D19A7808
:1029A000002A2AD11978FFF793FF0300002E03D0E5
:1029B000EA7B002A27D1EC73002B37D1002C49D0B9
:1029C0002B7B9C4246D82B6861000C19033C1C19D8
:1029D0000023637070BD224B224A3821224800F048
:1029E0008DF9224B224A6821224800F087F9224BB8
:1029F0001C4A3A211C4800F081F9204B194A3B211E
:102A0000194800F07BF9002A0AD0297B8A4207D8AE
:102A100051008A18033A29688C4662445470CAE708
:102A2000124B134A6821134800F068F9002B0BD0B1
:102A30002A7B934208D843001B18033B2A6894461C
:102A4000634400229A70B9E7084B094A6821094893
:102A500000F054F9054B064A6821064800F04EF98B
:102A60007C8F001054900010848F0010D48B0010C5
:102A70007C900010F08B0010D08F0010F88F0010A9
:102A800070B504000A00457B2900FFF775FF6073ED
:102A9000280070BD70B50400002967D0437B8B42CD
:102AA0000ED0002911D0037B99420ED84B005B1841
:102AB000033B0268D0188378002B0CD1002056E02D
:102AC0000121FFF7DDFF012051E0294B294A682150
:102AD000294800F013F9002B20D0227B93421DD807
:102AE0005A00D318033B2268D2182568EB5C8B424E
:102AF0001AD0002B1BD0227B934218D85A00D3182F
:102B0000033B2268D21853788B4216D0002BF0D1A9
:102B10001A4B1B4A67211B4800F0F0F8144B154A6A
:102B20006821154800F0EAF84378137007E0104B6D
:102B3000104A6821104800F0E1F8437853700023F0
:102B40008370437001222000FFF716FF0200617BB3
:102B5000814205D02000FFF75BFE6073012006E094
:102B6000094B074A6D21074800F0C8F8002070BDE6
:102B7000D48B00107C900010F08B0010848A001021
:102B80003C900010848F00101C90001010B50400C1
:102B9000FEF72AFB01002000FEF796FEFF232371BB
:102BA000BFF35F8F10BD10B50400FEF71DFB0100E1
:102BB0002000FEF789FEFF23237100236371BFF31A
:102BC0005F8F10BD034B9C46614489000160BFF3D9
:102BD0005F8F70474000003410B504000120FEF7FD
:102BE00011FB01002000FFF7EDFF10BD70B50400E0
:102BF0000D00062000F036FAC000290001F05AFC52
:102C0000C60908D00E4B9E4217D87F2318400130CA
:102C10003500460800E001256562A6622C3480205C
:102C20008001044300232360062000F01BFA80008B
:102C3000A901891901F03EFC70BD0026014DEBE7AA
:102C4000FEFF0000FFFF0000002909D00A22064B0A
:102C50009C466044434258414000044BC252704776
:102C600080225200F3E7C0460080FCBFDC13002046
:102C700070B505000C00062000F0F4F9002829D0FA
:102C8000164B9D4227D08022D203154B1A60154B5C
:102C90001A60154B9B6811009943FAD10021280056
:102CA000FFF7D2FF21002800FFF7A0FF2C002C34F3
:102CB000E96A60224A406E2111408022520122437B
:102CC00011600A4B2B6380239B01234310221A605F
:102CD0000323AB6470BD80221204D6E7008003405A
:102CE00000E0004000F0004000C000400103000090
:102CF00000BEFDE710B5FFF7FBFF000010B582B086
:102D00000C001900002A0CD0084B002A0BD00192AD
:102D1000009323000200064802F0DAFC0120FFF7CE
:102D2000E7FF044BF1E7034AF1E7C0466491001066
:102D3000749100107091001070B52B4B2B4A1A60E3
:102D40002B4B2C4A1A602C4B9A682A4B9343FAD18E
:102D50002A4C01E008CC9847294B9C42FAD300F05A
:102D600001F9234B274A1A60234B9B68DB43DB01A5
:102D7000FAD1254B40229A675A671A67DA66234CC4
:102D800009E0234B234A83212348FFF7B7FF2000A4
:102D9000FFF7FCFE0834214B9C4209D22368002B2C
:102DA000F5D0012BEDD12000FFF7FDFE0834F2E74E
:102DB0001B4CA1681B4DC022280002F045FBA560FA
:102DC000FDF751FA002800D000BEFEF7FDF9FEF72E
:102DD00055FDFFF7D7F8144C01E008CC9847134B8A
:102DE0009C42FAD370BDC04600E00040BFCDFBFE60
:102DF00000F00040FE7F3C0000C000401C050020A9
:102E00002C050020FFFFFF0100F001401405002009
:102E1000A49100102C920010C49100101C050020F9
:102E200000ED00E0000000202C050020340500200B
:102E30000FB400B583B0084802F018FC049B002BC7
:102E400007D005A90191180002F020FC034802F008
:102E50000DFC0120FFF74CFF1C920010F8860010BB
:102E6000F8B5DE4657464E464546E0B505000F002C
:102E700092460A9A93424ED31A0E91461E020A9A1D
:102E800000233000494601F057FB80466C0064196E
:102E9000A4002F4B9C4664446368834200D2606068
:102EA0002B1FDBB29B46012B3BD9C0239B01234345
:102EB000802212011A60AB00264A9958002905D0D9
:102EC000506901F0F7FA01300138FDD153465A013B
:102ED00023685A40E0231A4080235B0123431A6091
:102EE0005A46012A28D980239B01234380221201BC
:102EF0001A6043466360424600233000494601F0B1
:102F00001BFBAD00134B58510120F0BCBB46B24631
:102F1000A946A046F8BD104B104A2D211048FFF7D6
:102F2000EDFE012FC1D1C0239B01234303221A6070
:102F3000A368DB07FCD5C9E72168794003220A4072
:102F40001A60A2680123BB401342FAD0CBE7C04607
:102F500000800040DC0C00203C920010A892001081
:102F60005092001030B583B00C2000F021F9FEF72C
:102F700021F900280DD0002304E099002D4A2E48A5
:102F800088500133092BF8D92A4B2C4A5A6203B0D6
:102F900030BD2B4B00229A6700F07CF9294B0122AF
:102FA0001A60274B5B6C012BFBD1274B03221A6065
:102FB000234B9B6B012BFBD1013300930433234A3A
:102FC0000121234800F054F805230093214A0121F0
:102FD000214800F04DF8214B0093002202210420EB
:102FE000FFF73EFF1E4D00952B000022012105201A
:102FF000FFF736FF104C0094230000220021072029
:10300000FFF72EFF00942300002200210820FFF785
:1030100027FF0A4B00932300002200210920FFF71D
:103020001FFF00952B00002200210620FFF718FF4C
:10303000ADE7C046DC0C0020006CDC021BB70000D2
:10304000008000403CB0004030B00040002F685984
:1030500000800240008C864700C00240001BB70081
:10306000405973078000014BC0587047DC0C0020AA
:10307000F0B5C64600B504000F0090461D000C20B8
:1030800001F018FA06003D4A42443D4B9A4243D8AB
:1030900043011B1A9901C91AC90009188901404640
:1030A00001F008FA0200103A98235B009A4239D8DE
:1030B0006B1E062B3CD8069B013B062B38D8069B83
:1030C0009D423BD343461A09B2423DD32D04069B91
:1030D0001E0335432368002B3CDB2A4B9C424AD01D
:1030E00080225201284B1A60284B1A60284B9B689B
:1030F00011009943FAD12760A060231DC0229201DC
:103100001A43212313602368002BFCDAE5600823AF
:10311000136080BCB846F0BD1E4B1F4A11211F48EA
:10312000FFF7ECFD1E4B1C4A19211C48FFF7E6FD7A
:103130001C4B194A1C211948FFF7E0FD1A4B164A8F
:1031400022211648FFF7DAFD184B134A25211348B0
:10315000FFF7D4FD22683F231340BB42BDD1A368D3
:103160001B051B0D8342B8D1E368EE22D202134047
:10317000AB42B2D1CDE780229201B3E780E84BD3D6
:1031800080F8A93200C0024000E0004000F000409A
:1031900000C00040B892001008940010189300106E
:1031A0006C93001088930010D4930010EC930010DF
:1031B00080239B000343014AD3627047008005408F
:1031C000024B1A68024B5A607047C0468C110020AF
:1031D0000080054010B50200164B8020C005186025
:1031E000154B1648186000290AD0154BE021C90478
:1031F0001960002A09D1124B802212061A6010BDF4
:103200000C4BE021C9041960F3E753019B1A9800A5
:10321000801800010B4B186080235B04984202D396
:10322000084B094A1A60FFF7CBFF054B8022D205F5
:103230001A60E4E700B0054008200140FCFF0100EF
:1032400000A005408C110020FFFFFF0010B5030017
:1032500010000C4A8024E4051460002B0DD00122DC
:103260001343094A094CD461094C5C401462516211
:1032700093620021FFF7AEFF10BD034B0022DA611D
:10328000F7E7C04600B0054000800540D3C007B056
:103290002D3FF84F064BAA2212011A602F22DA6046
:1032A000044B054A1A60024B5B68002BFBDA70473F
:1032B000004002400060024000B0FA00704710B5C4
:1032C000002802D00B684968984710BD0100002013
:1032D00007E083001B185B00501C08601078C018C2
:1032E00030380A681378303BDBB2092BF1D97047CC
:1032F000F0B5DE4657464E464546E0B583B09346A8
:103300001F000C9B9A460D9C0E9B99460F9B9B079A
:1033100003D0B8460F00060022E00192A34688467B
:103320004E46B9460700B44207D2551C4B464146AB
:103330002020B84701342A00F5E73D004F465C469F
:10334000019B9B46B1464646B84637002E0007E033
:10335000013C551C5346185D43463900B0472A00CE
:10336000002CF5D135003E0047460F9B9B0707D444
:10337000100003B0F0BCBB46B246A946A046F0BD63
:10338000B0464E46B9462F005D46531BB342EFD2BE
:10339000541C4B4641462020B8472200F5E7F0B5C3
:1033A000CE46474680B585B0944698460C9D0D9C08
:1033B0000EAB1B789946109A119B129EB7071CD42E
:1033C000002B0CD0F7070AD54F46002F02D10C373F
:1033D000374204D0013B02E030272F55013494429C
:1033E00001D21F2CF8D9F70707D59C4205D21F2C14
:1033F00003D830272F550134F5E7F70615D57705A3
:1034000005D4002C03D0944224D09C4222D00F9AA1
:10341000102A2BD00F9A102A30D00F9A022A35D0BA
:103420001F2C02D830222A5501341F2C05D84A46B9
:10343000002A31D02D222A5501340396029301949B
:10344000009543466246FFF753FF05B0C0BCB9463E
:10345000B046F0BD621E012C06D00F9F102F01D088
:103460001400D4E7023CD2E71400D0E7B206D1D46E
:103470001F2CCFD878222A550134D1E7B206CCD5FB
:103480001F2CCAD858222A550134C9E71F2CC7D887
:1034900060322A550134C3E7720703D52B222A551F
:1034A0000134CAE73207C8D520222A550134C4E7BF
:1034B000F0B5DE4657464E464546E0B593B08146E8
:1034C0008A46089209931CAB10CB1B789B461E9D25
:1034D000219B9846002C03D1102342469A439046E4
:1034E0008023DB0046461E4042461A4212D0002C82
:1034F00022D000260EE03033D9B2771C0AAB9955A2
:103500002900200000F0D6FFAC4216D31F2F14D89C
:103510003E0004002900200000F0CCFFCBB2092BB4
:10352000E9D94246920605D54121C918C9B20A39DE
:10353000C9B2E2E76121F8E7270043460693209BE2
:1035400005931F9B049303955B46029301970AAB77
:103550000093099B089A51464846FFF720FF13B095
:10356000F0BCBB46B246A946A046F0BDF0B5DE466B
:1035700057464E464546E0B595B0089009910A92E7
:103580000B931E9E1F9C20AB1B789B46229B99464B
:10359000239D269B9A463300234303D11033524682
:1035A0009A4392468023DB0057461F4052461A42F8
:1035B00019D0330023432DD0002714E03033DAB282
:1035C0007B1C98460CABDA554A462B003000210094
:1035D00000F0B2FFA5421FD819D043461F2B1BD8BD
:1035E000474606000C004A462B003000210000F040
:1035F000A3FFD3B2092BE1D95246920605D5412249
:10360000D218D2B20A3AD2B2DAE76122F8E7B1456B
:10361000E3D901E00023984653460693259B059382
:10362000249B04934B4603935B46029343460193CA
:103630000CAB00930B9B0A9A09990898FFF7AFFE11
:1036400015B0F0BCBB46B246A946A046F0BD00008E
:10365000F0B5DE4657464E464546E0B591B0834646
:103660008A460C9298461A9C08941B9D0995220044
:103670002B002000290001F0EEF9002800D0E5E041
:1036800001225242D74B2000290001F0DFF9002827
:1036900000D0DBE001225242D34B2000290001F090
:1036A000BFF9002800D0D1E000220023089D2800A7
:1036B000099E310001F0B4F9002800D0DDE008983F
:1036C0000999069007918023DB001E9A1A400D92FB
:1036D0001E9A1A4201D106231C93069807990400EA
:1036E0000D000A000600024300D1D1E0080D40059C
:1036F000400DBE4CA44660440A03120BBC4B13435E
:103700001F0001F0BBF9BB4ABB4B01F046F9BB4AB5
:10371000BB4B01F01BF904000D000022B94B300037
:10372000390001F00AF9B84AB84B01F036F9020045
:103730000B002000290001F009F901F0B7F98146DA
:1037400001F09CF904000D00B14AB24B01F025F9DB
:103750000022B14B01F0FAF801F0A8F90600AF4AD7
:10376000AF4B2000290001F018F904000D003000D3
:1037700001F084F9AB4AAC4B01F00FF902000B00E9
:103780002000290001F0D9F804000D0002000B0010
:1037900001F003F90A900B91A44BF31800261F05C2
:1037A00022002B002000290001F0D0F80E900F918C
:1037B00022002B0000208021C90501F0BEF8040082
:1037C0000D0000229A4B0A980B9901F0C8F80022CC
:1037D000984B01F0BBF802000B000A980B9901F01E
:1037E000BEF80022944B01F0B1F802000B000A98D9
:1037F0000B9901F0B4F802000B002000290001F041
:10380000A5F802000B000E980F9901F0A8F800220D
:10381000774B01F09BF832003B0001F0BEF8060048
:103820000F0004000D00069A079B01F00FF9002815
:1038300030D001235B429C46E14400227D4B3000A6
:10384000390001F08CF804000D0023E01E9B049366
:103850001D9B03931C9B0293089A099B0092019362
:1038600043460C9A5146584600F0FCF811B0F0BCA3
:10387000BB46B246A946A046F0BD002300240693ED
:103880000794069580231B069C46664407961AE714
:10389000002399464B466333C62B1ED804261E9B35
:1038A0001B0526D52B0023430FD0644A644B069892
:1038B000079901F0C3F8002879D00022614B0698DF
:1038C000079901F0ADF8002871D01C9B4B4506DD2F
:1038D0004A46981A431E1C9303E00526DFE700239F
:1038E0001C938023DB001E9A1A431E92002600239D
:1038F00099461D9B9E4264D29F1B02231E9A1A402A
:103900000A921E9A134202D0002E00D000274B4686
:10391000002B07D022002B000698079901F01FF812
:1039200006900791002200230898099901F078F881
:10393000002848D1444B1E9A1340049303971C9BC4
:103940000293069B079C0093019443460C9A5146B0
:10395000584600F087F8002E00D187E71E9B9B0693
:103960003DD54525441C4346020051462800D84712
:103970004B46DA179B18534005220592013E0496E8
:10398000002203920A3202924A46D00F019000931D
:103990004346220051465846FFF78AFD0A9B002BFA
:1039A00000D163E702005F460C9E1D9D54E01C9B06
:1039B000002B9ED00D9B002B9BD01C9B013B1C938E
:1039C00097E7002799E7069C079D220029008020A1
:1039D0000006844661440B0006920793AAE765251A
:1039E000C0E7C046FFFFEF7FFFFFEFFF01FCFFFFD7
:1039F0000000F03FFB799F501344D33FB3C8608B66
:103A0000288AC63F0000F83F61436F63A787D23F13
:103A100071A379094F930A400000E03F1655B5BBEA
:103A2000B16B0240EF39FAFE422EE63FFF03000081
:103A300000002C4000002440000018402D431CEBE7
:103A4000E2361A3F80842E41FFF7FFFF541C4346A5
:103A500051462020B8472200931BAB42F6D31000FA
:103A600004E7C046F0B5DE4657464E464546E0B54B
:103A700095B00690079193469946209F1E9A1F9BEA
:103A80001000190000F0E7FF002831D10122524256
:103A9000BF4B1E981F9900F0C3FF002837D10122A9
:103AA0005242BC4B1E981F9900F0D0FF00283DD118
:103AB0000022B94B1E981F9900F0C8FF002850D172
:103AC0000022B64B1E981F9900F0AAFF002848D18B
:103AD000002200231E981F9900F0A2FF002850D159
:103AE00000239846229B5B0500D4B6E0002458E0F2
:103AF000229B0393219B029303230193A84B0093E2
:103B00004B465A4607990698FFF7F2FB0EE1229BB7
:103B10000393219B029304230193A24B00934B46F2
:103B20005A4607990698FFF7E3FBFFE00423229A21
:103B30001A4022990B4210D09B4B002A0FD004222E
:103B40002299039121990291019200934B465A4682
:103B500007990698FFF7CCFBE8E0944BEDE70322CA
:103B6000EEE7229B0493219B039302971E9B1F9CCD
:103B7000009301944B465A4607990698FFF768FD53
:103B8000D4E01E9A1F9B0020002100F0D6FE1E905C
:103B90001F9101239846A5E70CAB30221A55013F2F
:103BA00001341F2C01D8092FF6D81E981F9900F058
:103BB0007DFF050000F062FF02000B001E981F99B8
:103BC00000F0BBFEFA007A4B9B181A685B680A92F9
:103BD0000B9300F0E2FE0890099100F08BFF0600C5
:103BE00000F048FF02000B000898099900F0A5FEBC
:103BF0000890099100226F4B00F028FF00282ED07A
:103C00000136300000F036FF02000B000A980B99D5
:103C100000F00CFF002801D001350026002F2CD128
:103C2000280000F02BFF02000B001E981F9900F0E7
:103C300084FE06000F0000225E4B00F0F1FE00281B
:103C400046D100225B4B3000390000F0FFFE002817
:103C50003ED1EB073CD501353AE0062746E7002286
:103C6000544B0898099900F0DBFE0028D6D1002EAD
:103C700001D0F307D2D50136D0E7AA461F2C11D8C0
:103C8000013F0A21300000F015FC651C30310CABFF
:103C900019550A21300000F00DFC092E0ED906003E
:103CA0002C00EBE755461F2C0CD87B1E002F09D0AB
:103CB0000CAA302111551F000134F4E72B005546A2
:103CC0001C00F0E71F2C03D80CAB2E221A55013430
:103CD0001F2C10D80A21280000F0C4FB661C3031CC
:103CE0000CAB19550A21280000F0BCFB051E01D0C1
:103CF0003400EDE734000323229A1340012B1CD03B
:103D00001F2C06D84346002B32D00CAB2D221A555F
:103D10000134229B0393219B029301940CAB0093EB
:103D20004B465A4607990698FFF7E2FA15B0F0BCE1
:103D3000BB46B246A946A046F0BD219B002B13D03E
:103D40004346002B02D10C3313420FD0219B013B81
:103D50002193190003E00CAB30221A5501348C4238
:103D6000CED21F2CF7D9CBE72199F8E72199F6E7B6
:103D7000229B5B0704D50CAB2B221A550134C8E7F4
:103D8000229B1B07C5D50CAB20221A550134C0E776
:103D9000FFFFEFFFFFFFEF7F65CDCD4165CDCDC1CB
:103DA0002094001024940010189400101494001013
:103DB000109600100000E03FF0B5DE4657464E4634
:103DC0004546E0B593B082468B4690461193002954
:103DD00000D1EBE200275546119B1878002800D14E
:103DE000E7E2252809D07C1C43463A005946A847FB
:103DF000119B013311932700EEE701331193002447
:103E0000119A11780B00203BD8B2102803D88300F8
:103E1000D048C3589F460B00303BDBB2092B2CD94E
:103E20002A292FD000230A93119B1A782E2A39D0E1
:103E300000239A46119A1378683BD9B2122976D892
:103E40008B00C549CB589F4601231C430132119278
:103E5000D6E702231C4301321192D1E704231C430D
:103E600001321192CCE708231C4301321192C7E7BB
:103E700010231C4301321192C2E711A8FFF726FA62
:103E80000A90D1E71C9B1A1D1C921868002804DBBD
:103E90000A90119B01331193C6E702231C4343424E
:103EA0000A93F6E78022D20014435A1C11925A78E2
:103EB0001300303BDBB2092B04D92A2A07D0002398
:103EC0009A46B7E711A8FFF701FA8246B2E71C9BB2
:103ED0001A1D1C921868002804DB8246119B0133CE
:103EE0001193A7E70020F8E780235B002343511CD0
:103EF000119152786C2A01D01C0018E0C0239B005D
:103F00001C430131119112E080232343511C119174
:103F10005278682A01D01C0009E0C0231C430131FB
:103F2000119104E080235B001C4301321192119B2C
:103F300018780300253BDAB2532A00D92CE293000B
:103F4000864AD3589F4680239B001C43013211921E
:103F5000EDE780235B001C4301321192E7E77828EC
:103F600009D0582838D06F2838D0622838D010238C
:103F70009C430A2600E01026582833D0692803D035
:103F8000642801D00C229443630501D50122944397
:103F900069282AD0642828D0A30500D59FE0E3052E
:103FA00000D5B8E0630600D4CAE01C9A111D1C912C
:103FB0001168FF220A4005940A9B04935346039319
:103FC000029600230193009243463A005946280086
:103FD000FFF76EFA070027E01026CDE70826CBE7AB
:103FE0000226C9E720221443C8E7A30520D4E3052D
:103FF00050D4630666D51C9A111D1C911168FF22CE
:104000000A40D317D118594005940A9B049353468C
:1040100003930296D20F0192009143463A0059460B
:104020002800FFF745FA0700119B01331193D3E6EF
:104030001C9BDA1D07218A43110008311C9111686D
:1040400053689C46DB170C930D930C9A0D9B100044
:1040500048400E90624653400F930E980F990C9A69
:104060000D9B801A99410E900F9108940A9B07931B
:10407000534606930496002305936346DA0F029293
:104080000090019143463A0059462800FFF76EFA26
:104090000700C9E71C9A111D1C911268D317D1188B
:1040A000594005940A9B0493534603930296D20FFA
:1040B0000192009143463A0059462800FFF7F8F96B
:1040C0000700B1E7230605D51C9A111D1C9100239A
:1040D000D25E96E71C9A111D1C91126891E71C9BF9
:1040E000DA1D07218A43110008311C9108940A9BAC
:1040F000079353460693049600230593029313688F
:1041000054680093019443463A0059462800FFF74B
:104110002DFA070088E71C9A111D1C9105940A9B33
:10412000049353460393029600230193136800936C
:1041300043463A0059462800FFF7BAF9070073E7EB
:1041400023060DD51C9A111D1C9112681204120C25
:1041500031E7C0462C94001070940010BC940010FD
:104160001C9A111D1C91126825E746281AD01C9B29
:104170000733072293431A0008321C9204940A9AC8
:104180000392524602925C681B6800930194434676
:104190003A0059462800FFF765FC0700119B0133E0
:1041A000119319E620231C43E1E7672801D0472833
:1041B00002D180231B011C43452801D0472801D18F
:1041C00020231C431C9B0733072293431A00083209
:1041D0001C9204940A9A0392524602925C681B68ED
:1041E0000093019443463A0059462800FFF730FAFD
:1041F0000700119B01331193EEE502231A002240C0
:10420000924623421FD001241C9B1A1D1C927A1C2B
:104210009146187843463A005946A8475346002B22
:1042200016D1119B013311934F46D5E5561C4346D9
:1042300059462020B847230032005C1C9D42F5D827
:104240003D001700E0E701233A002F000A9DF4E744
:104250004A46A9460A9D06E0571C43465946202077
:10426000C84734003A00661CA542F5D84D46914631
:10427000D7E71C9B1A1D1C921B6899465346002BBE
:1042800000D1013B4E4601E0013613003278002A8E
:1042900002D05A1E002BF7D14B46F21A10928023FF
:1042A000DB0026001E401C4203D0524501D9534674
:1042B000109302231A0022400B92234205D03A00A9
:1042C00037004C46A946554620E03A00109B5F4611
:1042D000B3462E0006E0551C434639002020B04767
:1042E00023002A005C1C0A999942F4D835005E46E6
:1042F000BB46109437004C46A946554606E01D00C3
:104300000134561C43465946C847320020780028DD
:1043100004D0002FF4D06B1E002DF0D117004D46B5
:104320000B9B002B03D1119B0133119354E50A9F82
:10433000109B06E0561C434659462020A847230000
:1043400032005C1C9F42F5D81700ECE721231C4388
:104350001C9B1A1D1C921B68009305940823049350
:1043600053460393102302930023019343463A00DC
:1043700059462800FFF79CF80700119B0133119361
:104380002AE57C1C43463A0059462520A847119B44
:104390000133119327001FE57C1C43463A00594620
:1043A000A847119B01331193270015E50A4B9A4644
:1043B00010E5AA46474502D343465A1E00E03A009C
:1043C000434659460020D047380013B0F0BCBB46E6
:1043D000B246A946A046F0BDBD32001000B585B07A
:1043E000029003910121009313004A4202A902485E
:1043F000FFF7E2FC05B000BDBF3200100148042108
:10440000014B1847A00400202D44001010B50100F6
:1044100018231B8814221088984710BD10B501007E
:1044200018231B8816221088984710BDF0B5C64681
:1044300000B507000E0000250123984600E0013575
:10444000B5420AD2AC003C192068FFF7DFFF2060BC
:104450000028F4D100239846F1E7404680BCB846D6
:10446000F0BD0000124A936F9B0815D29066D1668A
:10447000002905D0FFE7FFE7FFE7516F106F704796
:1044800004B580210906C2175140002800D0C84356
:1044900004F026F8002104BDF0B5146E556E576F78
:1044A000166FFFF7E3FF1466556657671667F0BD92
:1044B000000000D0114A936F9B0813D2106651661A
:1044C000002905D0FFE7FFE7FFE7516F106F704746
:1044D00004B5002801D00020C04304F001F80021F9
:1044E00004BDC046F0B5146E556E576F166FFFF7DA
:1044F000E5FF1466556657671667F0BD000000D0EB
:1045000094464E4A926F9208624601D230E0C0460D
:10451000F0B54A4EB56F6D08FCD3346E756E776F8B
:10452000366F00F025F89446444A1466556657677E
:1045300016676246F0BDC0469446404A926F9208A4
:10454000624601D258E0C046F0B53C4EB56F6D08EA
:10455000FCD3346E756E776F366F00F04DF894466D
:10456000364A14665566576716676246F0BDC04600
:10457000002B24DB11D000293EDA00B5C9434042AC
:1045800000D1013100F038F8C943404200D1013177
:10459000DB43524200D1013300BD002AEBD1002899
:1045A00001D1002905D00020C90FC90701D1C0439E
:1045B000410800B503F08CFF0022002300BD00B5C8
:1045C00000290ADBDB43524200D1013300F014F82A
:1045D000C943404200D1013100BDC943404200D12E
:1045E0000131DB43524200D1013300F005F8DB43D7
:1045F000524200D1013300BD002923D1002B18D134
:10460000002A0CD0BC460D4F38667A660021002384
:10461000FFE7FFE7FFE77A6F386F674670470028CC
:1046200001D00748010000B503F052FF002200232B
:1046300000BD02000B00002000217047000000D0E8
:10464000FFFFFFFF002B00D0BFE0130C28D1002A92
:10465000E7D080B4114F39667A66FFE7FFE730B4E0
:10466000040C7B6F396F1B0423433B667A66FFE7BC
:10467000FFE7FFE7C04684B27B6F3D6F1B04234317
:104680003B667A66FFE7FFE7C04600232C042D0C4B
:104690007A6F386F00196941B0BC7047000000D0D4
:1046A000F0B594460025140E01D112020835140FFE
:1046B00001D112010435940F01D192000235D40FBB
:1046C00001D152000135D40B0134254F7C66254CB5
:1046D0003C660E0C93B2FFE7FFE7FFE73C6F6643D3
:1046E000360C7703BE467343DF0B5B04C01AB94137
:1046F000130C7343DB18C91ACE086643360CB64454
:1047000093B273431F0F1B01C01AB941130C7343BB
:104710001F0B1B05C01AB941860D8F023E4366432D
:10472000360C092D24DB520A7243801A7703460A9D
:104730006643360C16235B1BDE40DF40BF19644620
:104740006643821B7046043506330100D940A840F9
:10475000C01900D30131A24206D20023F0BD0000EF
:10476000000000D0FFFFFFFF121B0130F3D3F1E781
:1047700009277F1BFE406446A2B27243801A00D212
:104780000139220C7243130C1204821A99410B0056
:104790007046043513370100F940A840801900D352
:1047A0000131002B02D1A2420AD2F0BD013000D368
:1047B0000131121BFAD2013BF8D1A24200D2F0BD66
:1047C000013000D30131121BF7E7F0B51C0C00D00B
:1047D00080E00CB400251C0A04D11B02160E3343E2
:1047E000120208351C0B04D11B01160F33431201B2
:1047F00004359C0B04D19B00960F33439200023585
:10480000DC0B02D192185B4101351C009718644102
:104810000134464F7C66464C3C660E0CFFE7FFE7D2
:10482000FFE7C0463C6F6643360C7703BE4697B23F
:104830007743C01B00D20139C01B00D201399FB29F
:104840007743C91BC91B170C77437E04FF0B801BE2
:10485000B941CE086643360C0C2D33DBB644120B3F
:104860001F053A431B0B97B27743C01B00D2013997
:104870009FB27743C91B170C77433E043F0C801B44
:10488000B941860D8F023E43664329277F1BFE40B8
:104890000C3D7746AF40BF1930BCA2B2ABB27243F9
:1048A0007343801A9941220C7243130C1204801A2C
:1048B000994102000B000137001BA941F9D2781E73
:1048C0000021F0BD0C277F1BFE4077467F0BAF40D9
:1048D000FF19E0E700245D1C07D0144F7D663966A0
:1048E000FFE7FFE7FFE7FFE73C6F95B29EB2654346
:1048F0006643401BB141150C1E0C654366433604EC
:104900002F0C3E432D04401BB141994204D20200BA
:104910000B0020000021F0BD01D19042F7D3801A96
:10492000994101349942F2D3F6E70000000000D02B
:10493000FFFFFFFF48404140484018B41B4B5B68F5
:10494000FC46019308BD04DF0F4C001018B4174B50
:104950001B68FC46019308BD00DF194C001094460B
:10496000134A926F920809D2624618B40F4BDB6863
:10497000FC46019308BD0CDFD14E00100C4AF0B587
:10498000146E556E576F166F6246FFF7EEFF084ABA
:104990001466556657671667F0BD18B4034B9B68DD
:1049A000FC46019308BD08DF754D0010B4110020CE
:1049B000000000D0FFB550404240504059404B40AD
:1049C000594000E0FFB5154F4C00640D03D0BC42C8
:1049D00004D10C0314D80020090D09055C00640DF6
:1049E00003D0BC4204D11C030AD800221B0D1B05B6
:1049F00001264B4009D44B4003D58B4200D1824263
:104A0000FFBD9942FCD19042FFBD0B43DB1803432D
:104A10001343F5D0C9434918FFBD0000FF0700004C
:104A200000B5FFF7CFFF804100BDC04600B5FFF7DE
:104A3000C9FF01D9002000BD012000BD00B5FFF76E
:104A4000B9FF01D9002000BD012000BD00B5FFF76E
:104A5000B1FF804100BD012040054A00121804D872
:104A60005A00121801D8002070470120704700201A
:104A7000704700000021002805D17047C117484049
:104A8000401AFAD0C90713B5064B1B6898470CBCEF
:104A9000441CA2401005120B0349091B09051943C8
:104AA000114310BDB41200201F04000010B54C00CB
:104AB000620D8023D218DB00D21A5B057E2A10DD3E
:104AC0009E3A13DACC170903490819435242D140E0
:104AD000640001341532202A05DAD04008436043CF
:104AE00010BD002010BD0846604310BDC80FC0189F
:104AF000013810BD18B4044B5B6AFC46019308BD35
:104B000024DF815000100000B411002070B5132381
:104B10001C78012C14D0012C14DC022C02DC1F4A5E
:104B20001F4B9A641F48FFF771FC1F4B186070BD44
:104B300099001A481A4A885001331F2BF8D9EAE71E
:104B40000023FAE71948FFF769FC05001848FFF74A
:104B500065FC023803789B007F2B19DD8022290039
:104B60000F4800F071FC022CD7D1124B1A88B523E4
:104B70001B029A4209D1104B1A88104B9A4204D159
:104B80000F4B1A880F4B9A42C7D00020FEF750F9FE
:104B90000D4B0E4A32210E48FEF7B0F8D54B0010EF
:104BA000B41100204C330000B41200205344000024
:104BB0005346000054380000D83800004946000031
:104BC0009C38000059460000609600101C970010A9
:104BD000C096001007B56046002800D100BE0188CD
:104BE0000A0A0230DF2AFAD1C9B2820804D3028845
:104BF00040880004104300E00068024A50500390CF
:104C000007BD0000B41100200FB403BC0CBCF0B50C
:104C10000124E407634000E0F0B50C0DCF0F661EE1
:104C20003605891B640503D3C943404200D30131D3
:104C3000640D03D0661CF60A07D0E41B00207F0039
:104C4000791C89078912803C24031D0DDF0F6E1E1D
:104C500036059B1B6D0503D3DB43524200D3013362
:104C60006D0D03D06E1CF60A07D0ED1B00227F00ED
:104C70007B1C9B079B12803D2D032F1B661B58D46A
:104C8000A446202E46DA20371400BC401D00BD404B
:104C9000F24033412A4380185941CB0F05D0C94314
:104CA000C043002264425041514162464D0D28D11B
:104CB0000D0D07D100281FD0241940414941013A68
:104CC0000D0DF9D0640006D3013000D30131002C62
:104CD00001D140084000013A0BD4941CE40A04D1ED
:104CE00012051144DB071944F0BDD907204B1943C5
:104CF00000E0D9070020F0BD0029DDD1002CDBD178
:104D0000F0BD0132C6074008CD0728434908002EF0
:104D1000E1D0D9E73C2E29DA203E40371400BC40D0
:104D200000D00124F24014431A00BB401C43D317A7
:104D3000ACE7AC46202F08DA20360400B4400D0062
:104D4000B540F84039412843A5E73C2F0CDA203F15
:104D500040360400B44000D00124F8400443080069
:104D6000B1400C43C117EAE710001900002494E792
:104D70000000F07FF0B50C0D661E3605891BE60AB3
:104D80006405640D02D0651CED0A04D000200121E9
:104D90000905803C2403A4461C0D671E3F05DB1B50
:104DA000E70A6405640D02D0651CED0A04D00022F8
:104DB00001231B05803C24037740644497B484B2EC
:104DC00096B27443070C7E43150C6F4380B2684360
:104DD000361802D3012000043F183004350C0019A6
:104DE0007D41844688B29AB250430C0C62431F0C3A
:104DF0007C438EB27E43921902D301263604A41955
:104E00001604170C3618674101BC81B29AB251439F
:104E1000040C62431B0C5C4380B25843121802D34B
:104E20000120000424181004130C401863412D18AD
:104E30005E410020474106BC88B293B258430C0C37
:104E40006343120C544389B251435B1802D30121CE
:104E50000904641819041A0C091862416D185641A6
:104E60000020474118BCF902720D1143F0026A0D8F
:104E70001043ED020A0D03D16D1940414941013B38
:104E8000124E9B1B7600B3420ED26D0007D3013049
:104E9000002671416646354301D1400840001B059C
:104EA000C918E4072144F0BD0BDA013306D1013003
:104EB00004D101314F0D01D04908F2E7E10700208C
:104EC000F0BD013631050020EBE70000FF030000D4
:104ED000F0B51C0D671E3F05DB1BE70A6405640D7A
:104EE00002D0661CF60A04D0002201231B05803C78
:104EF0002403D0252D060026F6432E661E096E6675
:104F0000CE0FF619B44649004F0D02D07E1CF60AAA
:104F100003D000200021403F3F033E1BB600B444B5
:104F2000013F7F05C91B49082E6F013676089C0298
:104F3000950D25437543ED137543AD1301356D1084
:104F4000F603761B0CB4CC02450D2C43A2B2B3B2CF
:104F50005A43270C7B43350C6F43A4B26C431B1997
:104F600002D3012424043F191C041D0CA4187D4104
:104F700024196D41009A91B2ACB26143170C7C4385
:104F80002B0C5F4392B25A43A41802D3012212049D
:104F9000BF182204230C52187B41019C6C431B193F
:104FA000520ED9010A434401A01A81B2B2B2514350
:104FB00003145A43360C734387B27743D617D2197A
:104FC00000277E4136049B191704160C7F185E419A
:104FD0007316ED18F301002680337541A90F06D131
:104FE0006400690AE8055B0A184309D22FE004222D
:104FF000944480337541A90AA8059B0A184326D317
:10500000404149412404009A019B0D005543641B13
:105010004343E41A95B286B27543170C7E43030CE2
:105020005F4392B25A43B61802D301221204BF184A
:105030003204330C52197B4152429C41002C02D461
:105040000022013051414008CA071043490802B00C
:105050006246D7079210084BD218084B9A4203D2E7
:1050600012058918C919F0BD0020002A01DC390099
:10507000F0BD01331905F5E7FD030000FE07000050
:10508000002200B5203200F004F8080000BD000046
:1050900000220B150AD410B5944600F031F8141410
:1050A000013400DA0021CB17144C204700200021E6
:1050B00070476244343A0CD40C2A07DA0400914059
:1050C000904052422032D440214310BDD843D943AE
:1050D00010BD203207D40C46944052422032114178
:1050E000D040204310BD0800C917203203D45242DB
:1050F0002032104110BD1800190010BDB35000102F
:105100000A0DCC0F531E1B05C91A520503D3C94300
:10511000404200D30131520D03D0531CDB0A07D0AB
:10512000121B00206400611C89078912803A120357
:10513000014BD21A70470000FF0300005143434364
:10514000C9188C46110C83B24B4310B4040C614354
:1051500092B280B2504362431C041B0C001910BC75
:1051600059411304120CC0185141614470470000AA
:1051700048404140484000239C46114B5B6818471B
:1051800000239C460E4B1B6818470E4A936F9B08E2
:1051900004D200239C460A4BDB681847F0B5146E16
:1051A000556E576F166FFFF7F4FF064A1466556683
:1051B00057671667F0BD00239C46014B9B68184754
:1051C000B8120020000000D0C10FC90700D540422E
:1051D000002817D0F44603B40B4B1B68984706BC55
:1051E00081409E384042803107D20B0607D04900EB
:1051F000490AC0051043084360470130F8E7490AEF
:105200008902F5E770470000B412002041000A0E41
:1052100080231B067E2A0BDD9E3A0BDAC117400263
:10522000400818435242D04049000131484370477A
:1052300000207047C00FC01801387047C0420DD31E
:1052400000B540004008002100F012F8002801D409
:10525000404200BD8020000600BD0000034BDB691A
:10526000FC4618471CDF155400100000B81200203F
:1052700000239C46014B5B6A18470000B8120020CF
:10528000054A1047C2179142FAD0044BDB6DFC4629
:1052900018475CDFE3530010C9510010B81200201A
:1052A00070B513231D782A48FFF7B8F80400012DC4
:1052B00011D0012D09DDA31E1B789B007F2B40DD43
:1052C00080222100234800F0BFF82348FFF79EF812
:1052D000224B186070BD542201001E4800F0B4F843
:1052E0001F4B1A881F4B9A421CD1A7239B011A8877
:1052F0001D4B9A4216D11D4B1A881D4B9A4211D153
:105300001C4B1A8894239B019A420BD11A4B1A8882
:105310001A4B9A4206D11A4B1A681A4B9A4201D17B
:10532000152307E01848FDF783FD99001748094A3F
:10533000885001331F2BF8D9144A064B1A62DA61E0
:10534000B7E7134B134A42211348FDF7D7FCC04679
:1053500053460000B81200204C330000B412002065
:10536000EE290000C40F0000C20D0000962B0000C3
:10537000C0B50000182B0000CC2A000010B50000BA
:10538000FC2C000051ED8764709100109D530010BB
:1053900030970010C09700106497001007B5604662
:1053A000002800D100BE01880A0A0230DF2AFAD1A3
:1053B000C9B2820804D3028840880004104300E088
:1053C0000068024A5050039007BD0000B812002048
:1053D000002230B5002906D5CD0705434808013A1B
:1053E00010E0002230B505000D430FD0CD170C168C
:1053F000AC4205D1C901440E2143C0010732F6E792
:105400000500080052423D320149884730BD000086
:10541000EF2900000021C2158032803201D0024AFB
:105420001047002070470000CD2A000001480421E9
:10543000014B1847B00400202D440010014B1B689D
:1054400018470000B0040020014B5B6818470000BB
:10545000B004002010B50300080011001B68984735
:1054600010BD0000F8B507000D001600437C002BAE
:1054700002D0002400200CE00368110028009847A7
:105480002DE03B7C10E0022115483B689847601CEA
:105490000134B44214DA002CF3DD2B19013B1B78E4
:1054A0000D3B5A425341DBB22A5D0A2AF0D1002B50
:1054B000EED1A042E7DA211A28183B689847E2E7C4
:1054C000B04203DA311A28183B689847002E06DDEF
:1054D000AD19013D2B780D3B5A4253413B74F8BD49
:1054E0003098001070B505000368002B16D00C4BE7
:1054F0001C6805E0290004C92000FFF7B3FFE46839
:10550000002C09D02368002BF9D0064B1B68002B18
:10551000F0D0A342F3D1EDE700232B6070BDC0466D
:10552000740D0020780D002070B505000C000B688C
:10553000802B05D021684B1C23606418257170BD39
:105540000800FFF7CFFFF5E710B582B0D0231B06A8
:1055500000241C5701A9074802F0CAFF002806D101
:10556000019B9C4203D0034802F0D2FF012002B00D
:1055700010BDC0461405002010B5024802F0A0FF7F
:1055800010BDC04614050020F0B5CE46474680B594
:1055900083B006000D0090461C00FFF7D5FF814642
:1055A0006B1C05D0002C08D0194F1A4B1C6807E063
:1055B000300002F04BFF0500F4E7174FF5E7E46811
:1055C000002C17D02368002BF9D0144B1B68002B3C
:1055D00001D0A342F3D12A0031002000B84743464E
:1055E000002BECD06B46D91D0A230B700122200042
:1055F000B847E4E74B46002B07D16B1E9D41E8B24C
:1056000003B0C0BCB946B046F0BDFFF7B5FFF4E744
:1056100055540010740D002065540010780D0020C2
:10562000094A01E00C331A001368002B08D08342AA
:10563000F8D1002907D1C36813600023C36002E0DA
:10564000002900D010607047740D002010B5064B83
:105650001C6801E09847E468002C03D06368002BC5
:10566000F8D1F8E710BDC046740D002070B50500F4
:1056700002F0ECFE04000023012201002800FFF7E5
:1056800083FFFFF7E3FF200070BD000070B5A2B0FC
:1056900004000E00FFF758FF05008422002101A836
:1056A000FFF7CCFE3300220001A90848FEF796FE62
:1056B000040001A8FFF716FFFFF7C8FF002D02D175
:1056C000200022B070BDFFF757FFF9E72955001001
:1056D0000FB400B583B004A901C90191FFF7D6FF4B
:1056E00003B008BC04B0184710B500F087F800F00C
:1056F000EBF910BDF0B583B005000E0000240FE0FB
:105700006B46D91D0D230B700020002816D193691C
:105710009B06FCD40B78136001300131F5E70134AE
:10572000B44219DA0D4B1A682F5D0D4BD31859424C
:105730004B415B000B495B5EBB42E1D06B46D91D20
:105740000F7000200028EAD193699B06FCD40B78E7
:10575000136001300131F5E703B0F0BDE013002024
:105760000080FCBFDC130020F0B583B006000F0002
:10577000002004E06B4607331B7823702800B842F2
:1057800015DA0E4B1A6893691024210019401C4247
:105790000DD1451C34186B46D81D0029EAD19369F8
:1057A000DB06FCD41368037001310130F5E70028F3
:1057B00001D003B0F0BD0338FBE7C046E013002082
:1057C00070B515001C000B4B1860FDF751FA002D49
:1057D00006DA002C09DA01210748FFF721FF70BD26
:1057E00002212800FBF70EFCF3E702212000FBF763
:1057F00009FCF0E7E0130020C004002010B5064BC0
:105800001B78064B1B78E121012300224902044842
:10581000FFF7D6FF10BDC04678A000107CA0001096
:105820000040034070470000014B00221A7070478F
:10583000FF1300204B79FF2B0CD18B79002B0BD160
:10584000CB79012B0AD1082A0AD98A78054B1A701C
:10585000092000E0002070470020FCE70020FAE764
:105860000020F8E7FF1300200120704770B5040006
:105870000D000348FEF7CAFD0300290020009847E9
:105880005542000010B5002926D1117953791B0229
:105890000B43124909788B4201D0002010BD537888
:1058A000012B03D0022B10D00020F7E79178D3789A
:1058B0001B021943DB0503D54B0A0120984000E089
:1058C00000207F231940FFF7D1FF64220021002030
:1058D000FDF7BCFC0120E1E70120DFE7FF1300201A
:1058E00001230370004870477498001010B50B78BE
:1058F0004878000218438A7812041043CB781B06BC
:1059000003439622D200934200D010BD002108002C
:10591000FFF7ACFF30B583B005000C0001A91848B3
:1059200002F0E6FD002808D1D0231B061B68019A6F
:105930009A4221D0124802F0EBFD002001F054FE03
:10594000002807D1032464420D4802F0B9FD20006D
:1059500003B030BD002001F069FE002802D103240D
:105960006442F1E722002900002001F06BFE041ED2
:10597000EAD103246442E7E703246442E7E7C04630
:10598000C413002010B50021054802F0B1FD002825
:1059900000D110BD01F0C0FB014802F091FDF8E715
:1059A000C4130020F0B5C64600B582B080460D0095
:1059B00001A92E4802F09CFD002808D1D0231B0627
:1059C0001B68019A9A420FD0284802F0A1FD0020DE
:1059D00001F00AFE002847D1254B00200021186065
:1059E0005960224802F06CFD02B080BCB846F0BDA0
:1059F00001F092FB002001F039FE002001F0F4FDDF
:105A00000028EED0002001F0B3FE00281DD0AC42EB
:105A1000E7DA2E1B002001F0ABFE0200864200DC1C
:105A20003200002AE4D043461919002001F084FE18
:105A3000060001F071FB002001F018FEA419FCF72C
:105A400099FD0B4B18605960E1E7FCF793FD084B9B
:105A50001E685F68074A002392197B419942C0D8AB
:105A6000D5D19042D3D9BCE70024D0E7C41300209D
:105A70004806002020A1070010B50A4B1A78D02351
:105A80001B061B689A4207D1074B1878FBF746FCA8
:105A9000FA208000002110BD044B054A3221054840
:105AA000FDF72CF901140020001400208C98001040
:105AB00048990010B498001010B5024B1878FBF705
:105AC0002DFC10BD0014002070B584B0D0231B063F
:105AD0001A782D4B1A702D4B1B7802F08FF82C483A
