:020000041000EA
:1000000000B5324B212058609868022188439860DF
:10001000D860186158612E4B002199600221596106
:100020000121F02299502B49196001219960352056
:1000300000F044F80222904214D00621196600F024
:1000400034F8196E01211966002018661A6600F04E
:100050002CF8196E196E196E052000F02FF8012189
:100060000842F9D1002199601B49196000215960AB
:100070001A491B48016001219960EB211966A021F2
:10008000196600F012F800219960164914480160C1
:100090000121996001BC002800D000471248134993
:1000A000086003C880F30888084703B5996A0420EC
:1000B0000142FBD001200142F8D103BD02B5186610
:1000C0001866FFF7F2FF186E186E02BD00000240BE
:1000D000000000180000070000035F00212200005C
:1000E000F4000018222000A00001001008ED00E03C
:1000F00000000000000000000000000074B24E7A12
:1001000000200420F7010010C3010010C5010010F9
:10011000C1010010C1010010C1010010C101001097
:10012000C1010010C1010010C1010010C701001081
:10013000C1010010C1010010C9010010CB01001065
:10014000CD010010CD010010CD010010CD01001037
:10015000CD010010CD010010CD010010CD01001027
:10016000CD010010CD010010CD010010CD01001017
:10017000CD010010CD010010CD010010CD01001007
:10018000CD010010CD010010CD010010CD010010F7
:10019000CD010010CD010010CD010010CD010010E7
:1001A000CD010010CD010010CD010010CD010010D7
:1001B000CD010010CD010010CD010010CD010010C7
:1001C00000BE00BE00BE00BE00BE00BE00F04BF888
:1001D000103800BEF2EB88710C9300102C930010C5
:1001E0003402001090A31AE700202149086006C8D5
:1001F00081F3088810471F48006800282FD10DA4FC
:100200000ECC002902D000F012F8F9E71A491B4A77
:10021000002000E001C19142FCD1194988471949E9
:1002200088471949884700BEFDE701C901C29A42C3
:10023000FBD370472C930010C00000202005002045
:100240008C97001000000420000004208C97001000
:1002500000100420001004200000000070470B482C
:1002600003F0B4FC0047EFF30580C0B27047000014
:1002700008ED00E0000000D0200500206C130020F5
:10028000052500109D090010C124001057560000DC
:1002900006005250ABB36053CC8A00100600525097
:1002A000861C0302DC8A0010060052505422A29DD4
:1002B000E88A001005005250DE65F4688C97001043
:1002C000F8B5C04610B5064C2378002B07D1054B76
:1002D000002B02D0044800E000BF0123237010BDB2
:1002E000E806002000000000207A0010044B10B542
:1002F000002B03D00349044800E000BF10BDC046F6
:1003000000000000EC060020207A001010B5124A10
:100310000E231370013353701049033B0B700133EC
:100320004B700F48033B0370013343702F3343245A
:10033000D4540934CC540634C454002383708B70D5
:10034000937043764B765376193C03550B551355F2
:1003500003760B76137610BD280600206806002071
:10036000A806002010B50E2000F0F2FB0F2000F0D0
:10037000EFFB0C2000F0ECFB0D2000F0E9FB0A2065
:1003800000F0E6FB0B2000F0E3FB192000F0E0FB9F
:10039000D0231B068022D2015A62802212029A6266
:1003A000802252015A62802292019A628022D200F7
:1003B0005A62802212019A62802292045A6210BD0F
:1003C00070B504003923C35C1D2B14D88178C21882
:1003D000917601333922835470BD5A1CA118897E4D
:1003E000E318997613001C2BF7DDA5783723E55425
:1003F0000023002005E00023F5E7E218927E801834
:1004000001331D2BF9DD1E2103F00CFCC3B2637612
:100410003A22A15C2A00024804F074FCDCE7C046E2
:10042000207A001001238340D022120653617047C6
:1004300070B584B01C4B1878FFF7F4FF1B4B18788D
:10044000FFF7F0FF1A4B1878FFF7ECFF01F0E8FA1E
:10045000060001F00BFD04000D1E19DB0A2200232B
:1004600012196B41994202D804D1904202D901225B
:100470005242D317002B11DB01210291002101917F
:100480000C490091300001F0E1FA012004B070BD88
:10049000094B0A4A3F210A4802F016F8064B074A60
:1004A0003F21074802F010F82806002068060020C7
:1004B000A8060020D1040010487A0010C07A00106D
:1004C000647A001001238340D022120693617047A2
:1004D00010B50400094B1878FFF7F4FF084B1878A3
:1004E000FFF7F0FF074B1878FFF7ECFF01F098FAE1
:1004F000210001F063FB0A20002110BD2806002026
:1005000068060020A806002001238340D02212069E
:100510009361704770B504000D4B5878D0231B06CB
:100520005B68C340DB0703D5094B1B7E002B07D05C
:1005300001F076FA210001F041FB0020002170BD9E
:10054000034D01332B76FFF7DFFF0023AB70EFE79E
:100550002806002070B504000D4B5878D0231B06E8
:100560005B68C340DB0703D5094B1B7E002B07D01C
:1005700001F056FA210001F021FB0020002170BD9E
:10058000034D01332B76FFF7BFFF0023AB70EFE77E
:100590006806002070B504000D4B5878D0231B0668
:1005A0005B68C340DB0703D5094B1B7E002B07D0DC
:1005B00001F036FA210001F001FB0020002170BD9E
:1005C000034D01332B76FFF79FFF0023AB70EFE75E
:1005D000A806002010B50C003A2103F04BFBA070D8
:1005E0002000FFF7EDFE10BD70B584B0454B597883
:1005F000D0231B061B68002B38D0434BCA08083297
:100600009200D25807230B409B00DA40130741D5D4
:100610003C4B5878082100F065FA01F027FC0029CE
:1006200026DB384B9860D96001F0FAF9060001F03A
:100630001DFC04000D1E21DB0100344A00231219A9
:100640006B419D4202D804D1914202D9012252420B
:10065000D317002B18DB01210291002101912C49B5
:100660000091300001F0F2F904B070BD294BC5E7EC
:10067000294B2A4A3F212A4801F026FF264B274AC8
:100680003F21274801F020FF234B244A3F212448E3
:1006900001F01AFF1B4B5978D0231B061B68002B57
:1006A00017D0194BCA0808329200D25807230B40C2
:1006B0009B00DA405307D7D5124C6078042100F034
:1006C00011FA237E002B06D00E4B00221A765A76A2
:1006D000CAE7104BE6E701F0C9FB02000B1E0ADB7C
:1006E00008490A614B618C68CD68121BAB41100050
:1006F000FFF770FFB8E7084B084A3F21084801F0B0
:10070000E3FEC0462806002030410140B80B00003F
:100710001505001000410140487A0010C07A001011
:10072000647A001070B584B0454B5978D0231B060D
:100730001B68002B38D0434BCA0808329200D258AD
:1007400007230B409B00DA40130741D53C4B5878F8
:10075000082100F0C7F901F089FB002926DB384B9E
:100760009860D96001F05CF9060001F07FFB04009D
:100770000D1E21DB0100344A002312196B419D42FA
:1007800002D804D1914202D901225242D317002B40
:1007900018DB01210291002101912C4900913000C8
:1007A00001F054F904B070BD294BC5E7294B2A4A22
:1007B0003F212A4801F088FE264B274A3F2127483F
:1007C00001F082FE234B244A3F21244801F07CFEA5
:1007D0001B4B5978D0231B061B68002B17D0194BD5
:1007E000CA0808329200D25807230B409B00DA4017
:1007F0005307D7D5124C6078042100F073F9237E9B
:10080000002B06D00E4B00221A765A76CAE7104B00
:10081000E6E701F02BFB02000B1E0ADB08490A6128
:100820004B618C68CD68121BAB411000FFF7D2FE04
:10083000B8E7084B084A3F21084801F045FEC0468A
:100840006806002030410140B80B0000550500103B
:1008500000410140487A0010C07A0010647A00100C
:1008600070B584B0454B5978D0231B061B68002B0C
:1008700038D0434BCA0808329200D25807230B40A5
:100880009B00DA40130741D53C4B5878082100F013
:1008900029F901F0EBFA002926DB384B9860D96082
:1008A00001F0BEF8060001F0E1FA04000D1E21DBA4
:1008B0000100344A002312196B419D4202D804D131
:1008C000914202D901225242D317002B18DB012199
:1008D0000291002101912C490091300001F0B6F8FD
:1008E00004B070BD294BC5E7294B2A4A3F212A484D
:1008F00001F0EAFD264B274A3F21274801F0E4FD9D
:10090000234B244A3F21244801F0DEFD1B4B59783C
:10091000D0231B061B68002B17D0194BCA080832BE
:100920009200D25807230B409B00DA405307D7D5DB
:10093000124C6078042100F0D5F8237E002B06D0FD
:100940000E4B00225A761A76CAE7104BE6E701F002
:100950008DFA02000B1E0ADB08490A614B618C68A4
:10096000CD68121BAB411000FFF734FEB8E7084B0F
:10097000084A3F21084801F0A7FDC046A80600200C
:1009800030410140B80B00009505001000410140C6
:10099000487A0010C07A0010647A001070B58AB0EE
:1009A00004F0BCF901F020F8FFF7B0FCFFF7DAFC27
:1009B00001F036F804AB029300230193224B00931D
:1009C000224A002301F072F9214C607801220C21A7
:1009D00000F0AEF81F4E707801220C2100F0A8F84C
:1009E0001D4D687801220C2100F0A2F863780124E3
:1009F00020009840194900F06FF873782000984063
:100A0000174900F069F86B7820009840154900F00C
:100A100063F801210D2000F0ABF904E0D0231B06A0
:100A2000802292049A610A4B5B7E013BDBB20E2B63
:100A3000F4D8074B1B7E002BF0D1D0231B0680225D
:100A400092045A61EFE7C04631040010307500008F
:100A50002806002068060020A8060020E9050010EE
:100A6000250700106108001010B58300084A94465D
:100A700063441C6840226240C0241440802252011A
:100A800013431C60C000034B9C466044416010BD92
:100A900004C001400040014070B5D0231B061B6814
:100AA0009D00094C2C59204207D19B002043064C45
:100AB00018510D2000F0B0F970BD044B044ACC2150
:100AC000044801F001FDC0461C110020D87A001036
:100AD000587B0010047B001010B58022FFF7DCFF6C
:100AE00010BD0000072303409B00C00899403C3024
:100AF0008000014BC150704700400140F8B507002D
:100B00000C0016001D00FFF7EDFFFB089B00ED1821
:100B10000720384080008440002E04D080239B01B1
:100B20001D432C60F8BDC0239B011D432C60F9E7D9
:100B300010B5D0231B061B68002B03D0024BFFF718
:100B4000DDFF10BD014BFAE730410140004101409B
:100B500010B501238340D0221206936293610521D0
:100B6000FFF782FF10BD0000EFF3108072B6034B59
:100B70001B68002BFBD0BFF35F8F70472C0100D0A8
:100B8000BFF35F8F024B00221A6080F3108870471A
:100B90002C0100D0F8B506000C001500FFF7E4FFAB
:100BA000E308F718F15C07222240012393400B422F
:100BB00005D1DBB20B433B70FFF7E2FFF8BD21002C
:100BC000280001F01BFDF0B583B006000191140070
:100BD0001F00FFF7C9FF00E00134BC420CD8E30856
:100BE000F518F35C0721214001228A401A42F3D113
:100BF000D2B21A432A7001E001246442FFF7C0FF19
:100C0000002C02DB200003B0F0BD019B002BF9D0CB
:100C1000089801F0F3FC0000034B1B680220184009
:100C2000431E9841C0B2704700C00640002307E051
:100C3000054A9A189200BFF35F8F002111600133BB
:100C40001F2BF5D97047C04640000034054A107884
:100C5000431CDBB21370172B02D9130010221A7039
:100C60007047C0462004002000B583B00100044B4B
:100C700000931F2318220348FFF7A5FF03B000BD10
:100C80008C7B0010680C0020074B9B6810308000A4
:100C90001950BFF35F8FBFF35F8F044B00211960C2
:100CA00082F310887047C04600ED00E0240100D0B8
:100CB00010B5091A081F0A4B9C466144094A914223
:100CC00008D8C30706D440104005400D064B184312
:100CD00080B210BD054B064A9921064801F0F4FB8D
:100CE000FC070000FE0F000000E0FFFFA87B0010E3
:100CF0001C7E0010D87B001010B5091A04394C086E
:100D0000090B08D14905490D064A11430180064BDC
:100D10002343438010BD054B054AA121054801F03E
:100D2000D3FBC04600F0FFFF00F8FFFF2C7C001053
:100D3000F07D0010D87B001001238340034A106827
:100D40001840431E9841C0B27047C04600E100E021
:100D5000002904D0034B1860034B18607047034B05
:100D60001860FBE780E200E000E100E080E100E0E5
:100D700010B5012383401800FFF7EAFF10BD000003
:100D800001238340014A13607047C04600E200E03F
:100D9000024B9B6810308000C058704700ED00E0A7
:100DA00010B5FFF7F5FF002805D0054BC01A2F2816
:100DB00003D8012010BD0020FCE70020FAE7C04660
:100DC0002404002070B504000D00EFF3108672B605
:100DD0000C4B1B68002BFBD0BFF35F8F2000FFF78D
:100DE000D7FF094B984201D0A84205D13200290013
:100DF0002000FFF749FF70BD044B054A7C210548E0
:100E000001F062FB240100D0CD0100103C7C0010F9
:100E1000507E0010D87B0010F0B5DE4657464E4697
:100E20004546E0B589B0814601911500EFF3108A7F
:100E300072B6744B1B68002BFBD0BFF35F8F724BF5
:100E40000027DF57002F40DB7C00E419A4006F4827
:100E500024180622A2566C4B1A706D4B9A684B46AA
:100E600010339B00D35898461E001B1A2F2B38D9DD
:100E7000684B98452FD105AE674B33807B009B466E
:100E8000D8198000614B9846404402306349FFF70F
:100E90000FFF7080624BB380FF23B371F571019B2C
:100EA00007935F44BF0047440ECE0EC701231C4387
:100EB000A046524641464846FFF7E6FE09B0F0BC60
:100EC000BB46B246A946A046F0BD564B564ACD2178
:100ED000564801F0F9FA564B534AD421534801F0D1
:100EE000F3FAC04340440C2102F0C4FE002912D1A1
:100EF00001239E43B34633000026DA79AA4211D972
:100F00000621595600290CDB4A00521892001E0097
:100F10003E4B9B18F1E7474B434AE021434801F021
:100F2000D3FA1E00002E3BD005AB434A1A80813A0B
:100F30005A800623F3560293002B18DABD200002D4
:100F400005AB9B469880029A9A71DD71019A0792CF
:100F5000301D2100FFF7ACFEB080B7717B00DB19BC
:100F60009B002A4FFF185B4607CB07C7A1E7780015
:100F7000C0198000254BC0180430321DB388D90A2F
:100F80001C2907D15B055915023149005118FFF79B
:100F90008FFED5E7294B2A4AA721244801F094FA6D
:100FA00005AE1D4B33807B000293D8198000174A91
:100FB0009046020042440392901C1849FFF778FEC5
:100FC0007080039A101D5946FFF772FEB0801D4BCA
:100FD0005A464146521A524153431B0DB371F571A3
:100FE000019A0792029B9C466744BF0047440ECE7D
:100FF0000EC7114B5A461380813B538001231C437B
:10100000A04656E7240100D06613002024040020E7
:1010100000ED00E0CD01001000A1FFFF540400200E
:1010200000BDFFFF747C0010387E0010D87B0010DC
:101030009C7C0010C47C001001480000387D00102A
:10104000287E0010AAAA0000F0B5CE46474680B51B
:1010500083B006000D00EFF3108872B6564B1B6884
:10106000002BFBD0BFF35F8F544B9A6834001034D1
:10107000A300D758524B9F4207D0AF4200D199E00E
:101080000197504BFB1A2F2B09D9424639003000EB
:10109000FFF7FAFD03B0C0BCB946B046F0BD300062
:1010A000FFF74AFE814600213000FFF761FEBFF3E3
:1010B0005F8FFFF7D8F8002801D0844211D10123B7
:1010C000019C9C430022A368AB4212D00622A25688
:1010D000002A0DDB53009B189B002200394CE418BA
:1010E000F1E72C21384B394AFF31394801F0ECF94E
:1010F0002200AB4257D106256557002D39DB6B0026
:101100005B199A002F4B9B189A68A260DA79E271FA
:1011100006229A56A2719B795BB2002B10DABD2091
:101120000002A0806B005B199B00264AD318294A55
:1011300011789971157049463000FFF719FEA4E740
:10114000201D6B005B199B001E4A9B181A1D9B8873
:10115000D90A1C2907D15B055B15023359005118C8
:10116000FFF7A6FDDDE71C4B1C4AA721184801F03C
:10117000ABF9002812D1002A0ED0FF239371184B2F
:101180009380144A1378A371164B0E49641A644174
:1011900063431B0D1370CEE7094FF2E7201D124980
:1011A000FFF7AAFDC7E76021104B084AFF31084846
:1011B00001F08AF9024F68E7240100D000ED00E059
:1011C000CD01001024040020507D0010087E001086
:1011D000D87B001066130020387D0010287E001098
:1011E00000BDFFFFAAAA00005E040020747D00106D
:1011F00070B50400012606432D4BF31A2F2B28D877
:10120000FFF731F800282BD0EFF3108C72B6294B82
:101210001B68002BFBD0BFF35F8F274D22002449B2
:10122000521A524155432D0D6DB2244B9B688000DC
:101230001B58B3421BD00022032A32D853009B18FC
:101240009B001B49CB189B795BB2AB421FD001328C
:10125000F2E7C2211A4B1B4A49001B4801F034F93E
:1012600088211A4B174AFF31174801F02DF9134B0B
:101270009B68174A1A50174B1A78A2711D70BFF35A
:101280005F8F0C4B00221A608CF3108870BD080031
:101290005300991889004118FF268E710E4A8A80E2
:1012A000E9E7CC210D4B074A4900074801F00CF94A
:1012B00024040020240100D0AAAA000000ED00E0D0
:1012C0007C7D0010D47D0010D87B0010A47D001020
:1012D000CD0100106613002000BDFFFFB07D00109F
:1012E0000022044B02E0044902C30132072AFAD962
:1012F0007047C04600E400E08080808000B583B085
:101300000100D0231B061B680648C018064B00933B
:1013100005230022FFF757FC002801DB1F23181AC2
:1013200003B000BD60130020B87D0010024B9C4646
:1013300061448900016070474000003410B50C0022
:10134000CB68834207D108000B699847002809D071
:101350002068616810BD9621054B064A4900064881
:1013600001F0B2F80023E36000200021F2E7C0465C
:101370006C7E0010A4800010807E001070B5050007
:101380000C00080000F066FD200000F037FE084960
:10139000200000F077FDFFF759FC064B9C466044A7
:1013A000800068602C75A400034BE55070BDC046FA
:1013B000C1160010400000340C1100200A4B1A68BE
:1013C000EFF3108172B61368002BFCD0BFF35F8F70
:1013D000054B1B68BFF35F8F00221A6081F31088F2
:1013E00040BF0020002170473013002010B50029B5
:1013F00022D003681B7B99421ED8174B9C46614440
:10140000090183689C4661440C684968002A19D028
:1014100003681B7B9A4215D883680F488446624450
:1014200012019A1810685368020001208B4201D8FB
:101430000ED00020C0B210BD084B094A3B2109481C
:1014400001F042F8054B064A3B21064801F03CF802
:10145000A242EFD8EDE7C046FFFFFF0FCC7E0010A1
:101460000C810010807E001010B500291ED0037B77
:1014700099421BD84B005B18033B0468A4466344A5
:10148000002919D0002A1DD0914221D0002A25D050
:10149000047BA24222D80468500080180338201828
:1014A0008170197800291FD11A7010BD104B114A94
:1014B0006821114801F008F8104B114A6F310E48AD
:1014C00001F002F80F4B0E4A70210B4800F0FCFFB0
:1014D0000D4B0B4A7121084800F0F6FF044B054AFA
:1014E0006821054800F0F0FF41701A70DDE7C04642
:1014F000007F0010788100101C7F00107C7F00109E
:1015000054810010887F0010947F001070B5060091
:101510000D001400002914D0002A14D080687368CC
:101520009847002806D0220029003000FFF79CFFD2
:10153000280007E02A0021003000FFF795FF200077
:1015400000E0100070BD0800FCE70000F0B583B0BB
:101550000500009201930AAB1C780BAB1F78002C9E
:1015600026D003685A7B944207D10123002B19D15E
:10157000002C3BD1200003B0F0BD002C0CD01A7B16
:10158000944209D81A6863001B19033BD3189B784F
:10159000002BEBD00123E9E73E4B3F4A68213F484F
:1015A00000F092FF3E4B3F4A65213F4800F08CFF20
:1015B00003689C7B002CDBD012D01A7B94420FD89E
:1015C00062001219033A19688C4662445178997383
:1015D000002900D1D9730023937053701370C7E7AB
:1015E0002C4B2D4A68212D4800F06EFF002C3AD07C
:1015F0002B681B7B9C4236D82C4BE3181B01AA6836
:1016000094466344009A1A60019A5A60089A9A6054
:10161000099ADA602E68002C2BD030D0337B9C42A4
:101620002DD863001B19033B3268944663440022A3
:101630009A705A701A70717B22003000FFF766FFB3
:101640007073844200D095E7287D009A019B00F0DA
:1016500061FC061E01D0002F17D00C9B002B00D17F
:1016600088E71E7086E7124B124A3B210E4800F0B5
:101670002BFF114B114AA521084800F025FF054B0F
:10168000054A6821054800F01FFF2868210000F086
:1016900069FEE2E7007F0010788100101C7F0010D7
:1016A000AC7F001084810010807E0010FFFFFF0FD0
:1016B000CC7E00100C8100107C7E00106881001030
:1016C000F0B5DE4657464E464546E0B58BB009902C
:1016D000002308938200B24BD658370032E0B14B5A
:1016E000B14A3F21B14800F0EFFEB14BB14A3B2176
:1016F000B14800F0E9FEB14BB14A8C21AE4800F090
:10170000E3FEB04BAE4A9021AB4800F0DDFEA84BA3
:10171000AD4A4021A84800F0D7FE2A686B680998B6
:1017200000F0F8FB00239A4698467B68BFF35F8F72
:1017300000221A6086F310884346002B51D10028FE
:1017400000D126E100F092FB02000B1EC7DB002057
:101750000021069007917868EFF3108672B6016851
:101760000029FCD0BFF35F8F396888464C7B002C82
:1017700032D0BAD0097B8C42B7D8944965182D0174
:10178000B9688C46654428686968801A99410029BF
:10179000C3DC01D10028C0D10021404600F0D8FDB3
:1017A000A042A8D12A686B6806920793AB68984656
:1017B000EB689A464346002BA3D0002CA7D03B6889
:1017C0001B7B9C42A3D8631EFA68D35C08931B0260
:1017D000184338610020A8E700239A469846002065
:1017E000A3E7089B1B022343994651461800C047B4
:1017F00005000E007A68EFF3108B72B61368594239
:101800004B41D9B2002BF9D1BFF35F8F002E26DBFD
:10181000002E52DD3B69002B53D04B4572D100F0B6
:1018200025FB02000B1E73DB0100180052197341E7
:10183000984202D804D1914202D901225242D317D0
:10184000002B6BDB0021049101310391029451467E
:101850000191414600913800FFF778FE49E03B696D
:10186000002BD5D04B451CD1069A079B10001900C0
:10187000521BB341994202D804D1904202D90122AD
:101880005242D317002B12DB002104910131039146
:10189000029451460191414600913800FFF756FEEF
:1018A00027E04B4B464A9F21434800F00DFE3D4B3D
:1018B0003D4A3F213D4800F007FE002E01D1002D9A
:1018C000A8D13A68002C45D0537B9C422CD10121F1
:1018D00000293FD1D37B002B42D1D473002C52D0AE
:1018E0003B681B7B9C424ED8FA68013C135D013378
:1018F000135500233B617A68BFF35F8F13608BF34E
:1019000010881FE7324B2E4AA2212B4800F0DCFD45
:10191000244B254A3F21254800F0D6FD214B224A81
:101920003F21224800F0D0FD002C0DD0137B9C42BB
:101930000AD863001B19033B1068844663449B78F4
:10194000002BC5D00121C3E7224B234A682123483D
:1019500000F0BAFD224B234AF621204800F0B4FDE6
:10196000002B0AD0117B8B4207D85900CB18033BC0
:1019700011688C4663445C70AFE7164B164A6821C9
:10198000164800F0A1FD0A4B0F4A40210A4800F01A
:101990009BFD0BB0F0BCBB46B246A946A046F0BDCD
:1019A0000C110020487A0010D8800010647A0010D2
:1019B000CC7E00100C810010807E0010D47F0010BF
:1019C000F0800010EC7F001030810010FFFFFF0F4F
:1019D000F87F0010007F0010788100101C7F00103D
:1019E000348000104481001010B50A4B5B68002B56
:1019F00004D00A210848FFF799FC10BD054C2300CC
:101A0000064A1021206800F0C3FB03212000FFF7E5
:101A1000B5FCEEE76C04002030130020ED1300103D
:101A200010B5064B5B68002B01D0044810BD044B79
:101A3000044A5C21044800F047FDC0466C040020C5
:101A40005880001018810010807E0010F0B5DE462E
:101A500057464E464546E0B58BB0804616001F00FF
:101A6000149B9A46159B994616AB1B789B461F23E1
:101A700002AA9446634400221A7032E0002809D07A
:101A800042461268127B904204D8421E4146C96801
:101A90008A5C48E0434B444A4021444800F014FD2E
:101AA0000798002B75D05B46002B72D04946D04773
:101AB00004000D0003000B4300D171E0002946DB58
:101AC00000F0D4F906000F1E55DB36196F41B942FC
:101AD00002D804D1B04202D901267642F717002F6E
:101AE0004FDB43465A68EFF3108472B613685942CD
:101AF0004B41D9B20791002BF8D1BFF35F8F1F3351
:101B000002AA9446634404930023039302934B4632
:101B100001935346009332003B004046FFF716FD09
:101B2000031EABD1020041464968BFF35F8F002519
:101B30000D6084F31088002B29D01F2302A98C4646
:101B400063441B78002BABD112021043A9E732008B
:101B50003B00361BAF41BB4202D804D1B24202D98E
:101B600001267642F717002FBBDA114B114A3F21AD
:101B7000114800F0A9FC0E4B0E4A3F210E4800F020
:101B8000A3FC0B4B0B4A3F210B4800F09DFC0120AE
:101B900040420BB0F0BCBB46B246A946A046F0BDE1
:101BA0000798F6E7CC7E001030810010807E001090
:101BB000487A0010D8800010647A0010F8B504004C
:101BC0004268EFF3108572B6136858424341D8B2A9
:101BD000002BF9D1BFF35F8FCBB22268567BB342A3
:101BE0001BD10120002848D0206988422BD0090A47
:101BF000C9B2002B2ED02068007B83422AD8581E01
:101C0000E668305C88422BD000206368BFF35F8FAA
:101C100000221A6085F31088F8BD002B0DD0167BCA
:101C2000B3420AD85E00F618033E1768BC46664405
:101C3000B678002ED6D00120D4E7134B134A682182
:101C4000134800F041FC8521124B134A4900134808
:101C500000F03AFC124B134A4021104800F034FCCB
:101C60001900100000F07EFB0028CED112210E4B8F
:101C7000094AFF31094800F027FC23698B42C4D18F
:101C800000232361C1E7C046007F00107881001067
:101C90001C7F00107C800010C0800010807E00102F
:101CA000CC7E001030810010A0800010F0B585B00F
:101CB0000700100019000C9E13000B4301D10120F6
:101CC0000021B7600A9B3361306071600B9B7361C8
:101CD000CA1713005040040051400D00A41A9D4142
:101CE00000F0C4F802000B1E1ADB010018001219E4
:101CF0006B41984202D804D1914202D9012252424A
:101D0000D317002B12DB0121029101960A490091A1
:101D10003800FFF79BFEF060C043C00F05B0F0BD78
:101D2000064B074A3F21074800F0CEFB034B044A0D
:101D30003F21044800F0C8FB3D130010487A001012
:101D4000D8800010647A001070B584B006000C00D2
:101D5000FFF766FE002302930193194B00933200B4
:101D60002300FFF773FE051E11DD20BFFFF758FEAD
:101D70002900FFF723FF134B5B6A9C421BD8114AD3
:101D8000926AB2421AD29C4213D0012014E00D4B49
:101D90005B6A9C4209D80B4A926AB24207D29C42C3
:101DA00001D0012008E0002006E0002004E001202E
:101DB00002E0002000E0002004B070BD0120FBE73D
:101DC000BD1300100040054070B5EFF305833F20C0
:101DD00018401038EFF3108C72B6194B1B68002BAB
:101DE000FBD0BFF35F8F012319008140154A516377
:101DF000154A12781400C440234214D0114B5C6A77
:101E00008300124D5B599C4206D38300104C1B5932
:101E10008A430D490A7007E00A4A031D9B0099583E
:101E20009950002300E00023BFF35F8F044A002194
:101E300011608CF31088002B00D0984770BDC0460D
:101E4000280100D0004005406A1300203C13002008
:101E5000580B002010B50100024A0348FEF79AFE15
:101E600010BDC0469C81001065130020044B5B6AC6
:101E7000034A906A1900536A9942F9D17047C046E3
:101E80000040054070B504000D00EFF3108672B6F7
:101E90001B4B1B68002BFBD0BFF35F8F002D1CD0AA
:101EA0002000FEF775FF174B83420BD0190020006E
:101EB000FEF788FF01212000FEF75AFF0123A3400F
:101EC000114A1360A400114BE550BFF35F8F0C4B18
:101ED00000221A6086F3108870BDA2000B4B00210F
:101EE000D1500122A2400A490B7893430B70054957
:101EF0002000FFF7A9F800212000FEF739FFE4E7F2
:101F0000280100D0C91D001038600540580B002082
:101F10006A130020F0B5DE4600B584B00400150059
:101F200001921E000293FFF7A1FF03958E4202D893
:101F30004ED185424CD9EFF3108B72B6274B1B68FC
:101F4000002BFBD0BFF35F8F254A17780125A540F2
:101F5000EBB23B431370234B5D63221D920001994A
:101F6000D150A2002049029850501B6A2B4212D136
:101F70001C4B1B6C2B4208D00020BFF35F8F174B0C
:101F800000221A608BF3108823E0184B184AC121F5
:101F9000184800F099FAFFF769FF8E4214D802D171
:101FA000039B834210D80E4B1B78BB420ED00D4BC7
:101FB0001D625D631F2004400123A3400E4A13608D
:101FC000074B1F701E38D8E70020D6E70120D4E762
:101FD000012004B080BCBB46F0BDC046280100D043
:101FE0006A130020004005403C130020C08100100F
:101FF0003C820010E481001080E200E0EFF3108CDE
:1020000072B60B4B1B68002BFBD0BFF35F8F012315
:102010008340084A136208490A789A430A70BFF35A
:102020005F8F034B00221A608CF310887047C04604
:10203000280100D0004005406A13002010B5002997
:102040001ED0037B99421BD84B005B18033B0468EE
:10205000A4466344002919D0002A1DD0914221D002
:10206000002A25D0047BA24222D8046850008018A0
:10207000033820188170197800291FD11A7010BDFB
:10208000104B114A6821114800F01EFA104B114AFA
:102090006F310E4800F018FA0F4B0E4A70210B48B2
:1020A00000F012FA0D4B0B4A7121084800F00CFAAF
:1020B000044B054A6821054800F006FA41701A7081
:1020C000DDE7C046007F0010588300101C7F001021
:1020D0007C7F001044830010887F0010947F0010E4
:1020E00070B506000D001400002914D0002A14D089
:1020F000806873689847002806D0220029003000C5
:10210000FFF79CFF280007E02A0021003000FFF7BE
:1021100095FF200000E0100070BD0800FCE7000003
:1021200010B50023437301338373037BC37301230F
:10213000027B9A4214D9002B0CD0027B934209D81F
:102140005A00D218033A01688C4662440133DBB26C
:102150005370EDE70B4B0C4A68210C4800F0B4F9C2
:10216000002A09D0924207D8016853009A18033A0E
:102170008A180023537010BD024B034A682103489C
:1021800000F0A2F9007F0010588300101C7F00109F
:1021900010B5017342608360FFF7C2FF10BD0000FD
:1021A00070B50400081E00D170BD002934D0237B17
:1021B000994231D84B005B18033B22689446634434
:1021C0005A78002AF0D02DD0237B9A422AD8530087
:1021D0009B18033B21688C4663445D78002159704D
:1021E000002825D0237B984222D843001B18033BAC
:1021F00021688C4663440021597001002000FFF7DC
:102200006FFF060029002000FFF7CAFF020031001F
:102210002000FFF765FFC7E7084B094A6821094816
:1022200000F052F9054B064A6821064800F04CF9C7
:10223000024B034A6821034800F046F9007F001072
:10224000588300101C7F001070B505000C001600AC
:10225000002928D02DD0037B99422AD84B005B1847
:10226000033B0268944663445A78002A27D19A783F
:10227000002A2AD11978FFF793FF0300002E03D01C
:10228000EA7B002A27D1EC73002B37D1002C49D0F0
:102290002B7B9C4246D82B6861000C19033C1C190F
:1022A0000023637070BD224B224A3821224800F07F
:1022B0000BF9224B224A6821224800F005F9224BF3
:1022C0001C4A3A211C4800F0FFF8204B194A3B21D8
:1022D000194800F0F9F8002A0AD0297B8A4207D869
:1022E00051008A18033A29688C4662445470CAE740
:1022F000124B134A6821134800F0E6F8002B0BD06C
:102300002A7B934208D843001B18033B2A68944653
:10231000634400229A70B9E7084B094A68210948CA
:1023200000F0D2F8054B064A6821064800F0CCF8C8
:10233000588200103083001060820010007F00106F
:10234000588300101C7F0010AC820010D482001053
:1023500070B504000A00457B2900FFF775FF607324
:10236000280070BD70B50400002967D0437B8B4204
:102370000ED0002911D0037B99420ED84B005B1878
:10238000033B0268D0188378002B0CD1002056E064
:102390000121FFF7DDFF012051E0294B294A682187
:1023A000294800F091F8002B20D0227B93421DD8C1
:1023B0005A00D318033B2268D2182568EB5C8B4285
:1023C0001AD0002B1BD0227B934218D85A00D31866
:1023D000033B2268D21853788B4216D0002BF0D1E1
:1023E0001A4B1B4A67211B4800F06EF8144B154A24
:1023F0006821154800F068F84378137007E0104B27
:10240000104A6821104800F05FF8437853700023A9
:102410008370437001222000FFF716FF0200617BEA
:10242000814205D02000FFF75BFE6073012006E0CB
:10243000094B074A6D21074800F046F8002070BD9F
:10244000007F0010588300101C7F0010B07D00102A
:102450001883001060820010F882001010B504008C
:10246000FEF7F4FB01002000FEF760FFFF2323715D
:10247000BFF35F8F10BD10B50400FEF7E7FB01004E
:102480002000FEF753FFFF23237100236371BFF386
:102490005F8F10BD034B9C46614489000160BFF310
:1024A0005F8F70474000003410B504000120FEF734
:1024B000DBFB01002000FFF7EDFF10BD00BEFDE7D4
:1024C00010B5FFF7FBFF000010B582B00C0019003B
:1024D000002A0CD0084B002A0BD001920093230055
:1024E0000200064802F00EFC0120FFF7E7FF044B54
:1024F000F1E7034AF1E7C046408400105084001021
:102500004C84001070B52B4B2B4A1A602B4B2C4A75
:102510001A602C4B9A682A4B9343FAD12A4C01E05B
:1025200008CC9847294B9C42FAD300F001F9234B81
:10253000274A1A60234B9B68DB43DB01FAD1254B0A
:1025400040229A675A671A67DA66234C09E0234BE0
:10255000234A83212348FFF7B7FF2000FFF77EFFC0
:102560000834214B9C4209D22368002BF5D0012B63
:10257000EDD12000FFF77FFF0834F2E71B4CA16884
:102580001B4DC022280002F079FAA560FDF76BFE12
:10259000002800D000BEFEF749FBFEF7A1FEFFF7C2
:1025A00023FA144C01E008CC9847134B9C42FAD311
:1025B00070BDC04600E00040BFCDFBFE00F0004013
:1025C000FE7F3C0000C000400805002018050020E8
:1025D000FFFFFF0100F00140000500208084001093
:1025E0000C850010A08400100805002000ED00E01C
:1025F0000000002018050020200500200FB400B5C1
:1026000083B0084802F04CFB049B002B07D005A9BF
:102610000191180002F054FB034802F041FB012035
:10262000FFF74CFFF884001008850010F8B5DE466F
:1026300057464E464546E0B505000F0092460A9AB9
:1026400093424ED31A0E91461E020A9A002330007E
:10265000494601F051FB80466C006419A4002F4BE1
:102660009C4664446368834200D260602B1FDBB2E7
:102670009B46012B3BD9C0239B012343802212019F
:102680001A60AB00264A9958002905D0506901F01C
:10269000F1FA01300138FDD153465A0123685A40FE
:1026A000E0231A4080235B0123431A605A46012A23
:1026B00028D980239B012343802212011A604346BC
:1026C0006360424600233000494601F015FBAD002F
:1026D000134B58510120F0BCBB46B246A946A04658
:1026E000F8BD104B104A2D211048FFF7EDFE012FC9
:1026F000C1D1C0239B01234303221A60A368DB07D7
:10270000FCD5C9E72168794003220A401A60A26813
:102710000123BB401342FAD0CBE7C0460080004003
:102720006C0C00201C85001088850010308500107E
:1027300030B583B00C2000F01BF9FEF76DFA0028CD
:102740000DD0002304E099002D4A2E488850013313
:10275000092BF8D92A4B2C4A5A6203B030BD2B4BB7
:1027600000229A6700F076F9294B01221A60274B64
:102770005B6C012BFBD1274B03221A60234B9B6B15
:10278000012BFBD1013300930433234A0121234859
:1027900000F04EF805230093214A0121214800F062
:1027A00047F8214B0093002202210420FFF73EFF4F
:1027B0001E4D00952B00002201210520FFF736FF5A
:1027C000104C00942300002200210720FFF72EFF69
:1027D00000942300002200210820FFF727FF0A4B66
:1027E00000932300002200210920FFF71FFF00951E
:1027F0002B00002200210620FFF718FFADE7C0469E
:102800006C0C0020006CDC021BB700000080004054
:102810003CB0004030B00040002F685900800240BA
:10282000008C864700C00240001BB7004059730768
:10283000F0B5C64600B504000F0090461D000C2000
:1028400001F018FA06003D4A42443D4B9A4243D8F3
:1028500043011B1A9901C91AC90009188901404688
:1028600001F008FA0200103A98235B009A4239D826
:102870006B1E062B3CD8069B013B062B38D8069BCB
:102880009D423BD343461A09B2423DD32D04069BD9
:102890001E0335432368002B3CDB2A4B9C424AD065
:1028A00080225201284B1A60284B1A60284B9B68E3
:1028B00011009943FAD12760A060231DC022920124
:1028C0001A43212313602368002BFCDAE5600823F8
:1028D000136080BCB846F0BD1E4B1F4A11211F4833
:1028E000FFF7F2FD1E4B1C4A19211C48FFF7ECFDB7
:1028F0001C4B194A1C211948FFF7E6FD1A4B164AD2
:1029000022211648FFF7E0FD184B134A25211348F2
:10291000FFF7DAFD22683F231340BB42BDD1A36815
:102920001B051B0D8342B8D1E368EE22D20213408F
:10293000AB42B2D1CDE780229201B3E780E84BD31E
:1029400080F8A93200C0024000E0004000F00040E2
:1029500000C0004098850010E8860010F88500103F
:102960004C86001068860010B4860010CC860010DB
:1029700080239B000343014AD362704700800540D7
:10298000024B1A68024B5A607047C046041100207F
:102990000080054010B50200164B8020C00518606D
:1029A000154B1648186000290AD0154BE021C904C0
:1029B0001960002A09D1124B802212061A6010BD3C
:1029C0000C4BE021C9041960F3E753019B1A9800EE
:1029D000801800010B4B186080235B04984202D3DF
:1029E000084B094A1A60FFF7CBFF054B8022D2053E
:1029F0001A60E4E700B0054008200140FCFF010038
:102A000000A0054004110020FFFFFF0010B50300E7
:102A100010000C4A8024E4051460002B0DD0012224
:102A20001343094A094CD461094C5C401462516259
:102A300093620021FFF7AEFF10BD034B0022DA6165
:102A4000F7E7C04600B0054000800540D3C007B09E
:102A50002D3FF84F064BAA2212011A602F22DA608E
:102A6000044B054A1A60024B5B68002BFBDA704787
:102A7000004002400060024000B0FA00704710B50C
:102A8000002802D00B684968984710BD010000205B
:102A900007E083001B185B00501C08601078C0180A
:102AA00030380A681378303BDBB2092BF1D9704714
:102AB000F0B5DE4657464E464546E0B583B09346F0
:102AC0001F000C9B9A460D9C0E9B99460F9B9B07E3
:102AD00003D0B8460F00060022E00192A3468846C4
:102AE0004E46B9460700B44207D2551C4B464146F4
:102AF0002020B84701342A00F5E73D004F465C46E8
:102B0000019B9B46B1464646B84637002E0007E07B
:102B1000013C551C5346185D43463900B0472A0016
:102B2000002CF5D135003E0047460F9B9B0707D48C
:102B3000100003B0F0BCBB46B246A946A046F0BDAB
:102B4000B0464E46B9462F005D46531BB342EFD206
:102B5000541C4B4641462020B8472200F5E7F0B50B
:102B6000CE46474680B585B0944698460C9D0D9C50
:102B70000EAB1B789946109A119B129EB7071CD476
:102B8000002B0CD0F7070AD54F46002F02D10C3787
:102B9000374204D0013B02E030272F5501349442E4
:102BA00001D21F2CF8D9F70707D59C4205D21F2C5C
:102BB00003D830272F550134F5E7F70615D57705EB
:102BC00005D4002C03D0944224D09C4222D00F9AEA
:102BD000102A2BD00F9A102A30D00F9A022A35D003
:102BE0001F2C02D830222A5501341F2C05D84A4602
:102BF000002A31D02D222A550134039602930194E4
:102C0000009543466246FFF753FF05B0C0BCB94686
:102C1000B046F0BD621E012C06D00F9F102F01D0D0
:102C20001400D4E7023CD2E71400D0E7B206D1D4B6
:102C30001F2CCFD878222A550134D1E7B206CCD543
:102C40001F2CCAD858222A550134C9E71F2CC7D8CF
:102C500060322A550134C3E7720703D52B222A5567
:102C60000134CAE73207C8D520222A550134C4E707
:102C7000F0B5DE4657464E464546E0B593B0814630
:102C80008A46089209931CAB10CB1B789B461E9D6D
:102C9000219B9846002C03D1102342469A4390462C
:102CA0008023DB0046461E4042461A4212D0002CCA
:102CB00022D000260EE03033D9B2771C0AAB9955EA
:102CC0002900200000F0D6FFAC4216D31F2F14D8E5
:102CD0003E0004002900200000F0CCFFCBB2092BFD
:102CE000E9D94246920605D54121C918C9B20A3927
:102CF000C9B2E2E76121F8E7270043460693209B2B
:102D000005931F9B049303955B46029301970AABBF
:102D10000093099B089A51464846FFF720FF13B0DD
:102D2000F0BCBB46B246A946A046F0BDF0B5DE46B3
:102D300057464E464546E0B595B0089009910A922F
:102D40000B931E9E1F9C20AB1B789B46229B994693
:102D5000239D269B9A463300234303D110335246CA
:102D60009A4392468023DB0057461F4052461A4240
:102D700019D0330023432DD0002714E03033DAB2CA
:102D80007B1C98460CABDA554A462B0030002100DC
:102D900000F0B2FFA5421FD819D043461F2B1BD805
:102DA000474606000C004A462B003000210000F088
:102DB000A3FFD3B2092BE1D95246920605D5412291
:102DC000D218D2B20A3AD2B2DAE76122F8E7B145B4
:102DD000E3D901E00023984653460693259B0593CB
:102DE000249B04934B4603935B4602934346019313
:102DF0000CAB00930B9B0A9A09990898FFF7AFFE5A
:102E000015B0F0BCBB46B246A946A046F0BD0000D6
:102E1000F0B5DE4657464E464546E0B591B083468E
:102E20008A460C9298461A9C08941B9D099522008C
:102E30002B002000290001F0EEF9002800D0E5E089
:102E400001225242D74B2000290001F0DFF900286F
:102E500000D0DBE001225242D34B2000290001F0D8
:102E6000BFF9002800D0D1E000220023089D2800EF
:102E7000099E310001F0B4F9002800D0DDE0089887
:102E80000999069007918023DB001E9A1A400D9243
:102E90001E9A1A4201D106231C9306980799040032
:102EA0000D000A000600024300D1D1E0080D4005E4
:102EB000400DBE4CA44660440A03120BBC4B1343A6
:102EC0001F0001F0BBF9BB4ABB4B01F046F9BB4AFE
:102ED000BB4B01F01BF904000D000022B94B300080
:102EE000390001F00AF9B84AB84B01F036F902008E
:102EF0000B002000290001F009F901F0B7F9814623
:102F000001F09CF904000D00B14AB24B01F025F923
:102F10000022B14B01F0FAF801F0A8F90600AF4A1F
:102F2000AF4B2000290001F018F904000D0030001B
:102F300001F084F9AB4AAC4B01F00FF902000B0031
:102F40002000290001F0D9F804000D0002000B0058
:102F500001F003F90A900B91A44BF31800261F050A
:102F600022002B002000290001F0D0F80E900F91D4
:102F700022002B0000208021C90501F0BEF80400CA
:102F80000D0000229A4B0A980B9901F0C8F8002214
:102F9000984B01F0BBF802000B000A980B9901F066
:102FA000BEF80022944B01F0B1F802000B000A9821
:102FB0000B9901F0B4F802000B002000290001F089
:102FC000A5F802000B000E980F9901F0A8F8002256
:102FD000774B01F09BF832003B0001F0BEF8060091
:102FE0000F0004000D00069A079B01F00FF900285E
:102FF00030D001235B429C46E14400227D4B3000EF
:10300000390001F08CF804000D0023E01E9B0493AE
:103010001D9B03931C9B0293089A099B00920193AA
:1030200043460C9A5146584600F0FCF811B0F0BCEB
:10303000BB46B246A946A046F0BD00230024069335
:103040000794069580231B069C46664407961AE75C
:10305000002399464B466333C62B1ED804261E9B7D
:103060001B0526D52B0023430FD0644A644B0698DA
:10307000079901F0C3F8002879D00022614B069827
:10308000079901F0ADF8002871D01C9B4B4506DD77
:103090004A46981A431E1C9303E00526DFE70023E7
:1030A0001C938023DB001E9A1A431E9200260023E5
:1030B00099461D9B9E4264D29F1B02231E9A1A4072
:1030C0000A921E9A134202D0002E00D000274B46CF
:1030D000002B07D022002B000698079901F01FF85B
:1030E00006900791002200230898099901F078F8CA
:1030F000002848D1444B1E9A1340049303971C9B0D
:103100000293069B079C0093019443460C9A5146F8
:10311000584600F087F8002E00D187E71E9B9B06DB
:103120003DD54525441C4346020051462800D8475A
:103130004B46DA179B18534005220592013E049630
:10314000002203920A3202924A46D00F0190009365
:103150004346220051465846FFF78AFD0A9B002B42
:1031600000D163E702005F460C9E1D9D54E01C9B4E
:10317000002B9ED00D9B002B9BD01C9B013B1C93D6
:1031800097E7002799E7069C079D220029008020E9
:103190000006844661440B0006920793AAE7652562
:1031A000C0E7C046FFFFEF7FFFFFEFFF01FCFFFF1F
:1031B0000000F03FFB799F501344D33FB3C8608BAE
:1031C000288AC63F0000F83F61436F63A787D23F5C
:1031D00071A379094F930A400000E03F1655B5BB33
:1031E000B16B0240EF39FAFE422EE63FFF030000CA
:1031F00000002C4000002440000018402D431CEB30
:10320000E2361A3F80842E41FFF7FFFF541C4346ED
:1032100051462020B8472200931BAB42F6D3100042
:1032200004E7C046F0B5DE4657464E464546E0B593
:1032300095B00690079193469946209F1E9A1F9B32
:103240001000190000F0E7FF002831D1012252429E
:10325000BF4B1E981F9900F0C3FF002837D10122F1
:103260005242BC4B1E981F9900F0D0FF00283DD160
:103270000022B94B1E981F9900F0C8FF002850D1BA
:103280000022B64B1E981F9900F0AAFF002848D1D3
:10329000002200231E981F9900F0A2FF002850D1A1
:1032A00000239846229B5B0500D4B6E0002458E03A
:1032B000229B0393219B029303230193A84B00932A
:1032C0004B465A4607990698FFF7F2FB0EE1229B00
:1032D0000393219B029304230193A24B00934B463B
:1032E0005A4607990698FFF7E3FBFFE00423229A6A
:1032F0001A4022990B4210D09B4B002A0FD0042277
:103300002299039121990291019200934B465A46CA
:1033100007990698FFF7CCFBE8E0944BEDE7032212
:10332000EEE7229B0493219B039302971E9B1F9C15
:10333000009301944B465A4607990698FFF768FD9B
:10334000D4E01E9A1F9B0020002100F0D6FE1E90A4
:103350001F9101239846A5E70CAB30221A55013F77
:1033600001341F2C01D8092FF6D81E981F9900F0A0
:103370007DFF050000F062FF02000B001E981F9900
:1033800000F0BBFEFA007A4B9B181A685B680A9241
:103390000B9300F0E2FE0890099100F08BFF06000D
:1033A00000F048FF02000B000898099900F0A5FE04
:1033B0000890099100226F4B00F028FF00282ED0C2
:1033C0000136300000F036FF02000B000A980B991E
:1033D00000F00CFF002801D001350026002F2CD171
:1033E000280000F02BFF02000B001E981F9900F030
:1033F00084FE06000F0000225E4B00F0F1FE002864
:1034000046D100225B4B3000390000F0FFFE00285F
:103410003ED1EB073CD501353AE0062746E70022CE
:10342000544B0898099900F0DBFE0028D6D1002EF5
:1034300001D0F307D2D50136D0E7AA461F2C11D808
:10344000013F0A21300000F015FC651C30310CAB47
:1034500019550A21300000F00DFC092E0ED9060086
:103460002C00EBE755461F2C0CD87B1E002F09D0F3
:103470000CAA302111551F000134F4E72B005546EA
:103480001C00F0E71F2C03D80CAB2E221A55013478
:103490001F2C10D80A21280000F0C4FB661C303114
:1034A0000CAB19550A21280000F0BCFB051E01D009
:1034B0003400EDE734000323229A1340012B1CD083
:1034C0001F2C06D84346002B32D00CAB2D221A55A8
:1034D0000134229B0393219B029301940CAB009334
:1034E0004B465A4607990698FFF7E2FA15B0F0BC2A
:1034F000BB46B246A946A046F0BD219B002B13D087
:103500004346002B02D10C3313420FD0219B013BC9
:103510002193190003E00CAB30221A5501348C4280
:10352000CED21F2CF7D9CBE72199F8E72199F6E7FE
:10353000229B5B0704D50CAB2B221A550134C8E73C
:10354000229B1B07C5D50CAB20221A550134C0E7BE
:10355000FFFFEFFFFFFFEF7F65CDCD4165CDCDC113
:103560000087001004870010F8860010F486001011
:10357000F08800100000E03FF0B5DE4657464E46AA
:103580004546E0B593B082468B469046119300299C
:1035900000D1EBE200275546119B1878002800D196
:1035A000E7E2252809D07C1C43463A005946A84743
:1035B000119B013311932700EEE70133119300248F
:1035C000119A11780B00203BD8B2102803D8830041
:1035D000D048C3589F460B00303BDBB2092B2CD997
:1035E0002A292FD000230A93119B1A782E2A39D02A
:1035F00000239A46119A1378683BD9B2122976D8DB
:103600008B00C549CB589F4601231C4301321192C0
:10361000D6E702231C4301321192D1E704231C4355
:1036200001321192CCE708231C4301321192C7E703
:1036300010231C4301321192C2E711A8FFF726FAAA
:103640000A90D1E71C9B1A1D1C921868002804DB05
:103650000A90119B01331193C6E702231C43434296
:103660000A93F6E78022D20014435A1C11925A782A
:103670001300303BDBB2092B04D92A2A07D00023E0
:103680009A46B7E711A8FFF701FA8246B2E71C9BFA
:103690001A1D1C921868002804DB8246119B013316
:1036A0001193A7E70020F8E780235B002343511C18
:1036B000119152786C2A01D01C0018E0C0239B00A5
:1036C0001C430131119112E080232343511C1191BD
:1036D0005278682A01D01C0009E0C0231C43013144
:1036E000119104E080235B001C4301321192119B75
:1036F00018780300253BDAB2532A00D92CE2930054
:10370000864AD3589F4680239B001C430132119266
:10371000EDE780235B001C4301321192E7E7782834
:1037200009D0582838D06F2838D0622838D01023D4
:103730009C430A2600E01026582833D0692803D07D
:10374000642801D00C229443630501D501229443DF
:1037500069282AD0642828D0A30500D59FE0E30576
:1037600000D5B8E0630600D4CAE01C9A111D1C9174
:103770001168FF220A4005940A9B04935346039361
:10378000029600230193009243463A0059462800CE
:10379000FFF76EFA070027E01026CDE70826CBE7F3
:1037A0000226C9E720221443C8E7A30520D4E30575
:1037B00050D4630666D51C9A111D1C911168FF2216
:1037C0000A40D317D118594005940A9B04935346D5
:1037D00003930296D20F0192009143463A00594654
:1037E0002800FFF745FA0700119B01331193D3E638
:1037F0001C9BDA1D07218A43110008311C911168B6
:1038000053689C46DB170C930D930C9A0D9B10008C
:1038100048400E90624653400F930E980F990C9AB1
:103820000D9B801A99410E900F9108940A9B079363
:10383000534606930496002305936346DA0F0292DB
:103840000090019143463A0059462800FFF76EFA6E
:103850000700C9E71C9A111D1C911268D317D118D3
:10386000594005940A9B0493534603930296D20F42
:103870000192009143463A0059462800FFF7F8F9B3
:103880000700B1E7230605D51C9A111D1C910023E2
:10389000D25E96E71C9A111D1C91126891E71C9B41
:1038A000DA1D07218A43110008311C9108940A9BF4
:1038B00007935346069304960023059302931368D7
:1038C00054680093019443463A0059462800FFF794
:1038D0002DFA070088E71C9A111D1C9105940A9B7C
:1038E00004935346039302960023019313680093B5
:1038F00043463A0059462800FFF7BAF9070073E734
:1039000023060DD51C9A111D1C9112681204120C6D
:1039100031E7C0460C870010508700109C870010CC
:103920001C9A111D1C91126825E746281AD01C9B71
:103930000733072293431A0008321C9204940A9A10
:103940000392524602925C681B68009301944346BE
:103950003A0059462800FFF765FC0700119B013328
:10396000119319E620231C43E1E7672801D047287B
:1039700002D180231B011C43452801D0472801D1D7
:1039800020231C431C9B0733072293431A00083251
:103990001C9204940A9A0392524602925C681B6835
:1039A0000093019443463A0059462800FFF730FA45
:1039B0000700119B01331193EEE502231A00224008
:1039C000924623421FD001241C9B1A1D1C927A1C74
:1039D0009146187843463A005946A8475346002B6B
:1039E00016D1119B013311934F46D5E5561C434622
:1039F00059462020B847230032005C1C9D42F5D870
:103A00003D001700E0E701233A002F000A9DF4E78C
:103A10004A46A9460A9D06E0571C434659462020BF
:103A2000C84734003A00661CA542F5D84D46914679
:103A3000D7E71C9B1A1D1C921B6899465346002B06
:103A400000D1013B4E4601E0013613003278002AD6
:103A500002D05A1E002BF7D14B46F21A1092802347
:103A6000DB0026001E401C4203D0524501D95346BC
:103A7000109302231A0022400B92234205D03A00F1
:103A800037004C46A946554620E03A00109B5F4659
:103A9000B3462E0006E0551C434639002020B047AF
:103AA00023002A005C1C0A999942F4D835005E462E
:103AB000BB46109437004C46A946554606E01D000B
:103AC0000134561C43465946C84732002078002826
:103AD00004D0002FF4D06B1E002DF0D117004D46FE
:103AE0000B9B002B03D1119B0133119354E50A9FCB
:103AF000109B06E0561C434659462020A847230049
:103B000032005C1C9F42F5D81700ECE721231C43D0
:103B10001C9B1A1D1C921B68009305940823049398
:103B200053460393102302930023019343463A0024
:103B300059462800FFF79CF80700119B01331193A9
:103B40002AE57C1C43463A0059462520A847119B8C
:103B50000133119327001FE57C1C43463A00594668
:103B6000A847119B01331193270015E50A4B9A468C
:103B700010E5AA46474502D343465A1E00E03A00E4
:103B8000434659460020D047380013B0F0BCBB462E
:103B9000B246A946A046F0BD7D2A001000B585B00A
:103BA000029003910121009313004A4202A90248A6
:103BB000FFF7E2FC05B000BD7F2A00100148042198
:103BC000014B1847A0040020ED3B001010B5010088
:103BD00018231B8814221088984710BD10B50100C7
:103BE00018231B8816221088984710BDF0B5C646CA
:103BF00000B507000E0000250123984600E00135BE
:103C0000B5420AD2AC003C192068FFF7DFFF206004
:103C10000028F4D100239846F1E7404680BCB8461E
:103C2000F0BD0000124A936F9B0815D29066D166D2
:103C3000002905D0FFE7FFE7FFE7516F106F7047DE
:103C400004B580210906C2175140002800D0C8439E
:103C500003F0C6FE002104BDF0B5146E556E576F1B
:103C6000166FFFF7E3FF1466556657671667F0BDDA
:103C7000000000D0114A936F9B0813D21066516662
:103C8000002905D0FFE7FFE7FFE7516F106F70478E
:103C900004B5002801D00020C04303F0A1FE00219C
:103CA00004BDC046F0B5146E556E576F166FFFF722
:103CB000E5FF1466556657671667F0BD000000D033
:103CC00094464E4A926F9208624601D230E0C04656
:103CD000F0B54A4EB56F6D08FCD3346E756E776FD4
:103CE000366F00F025F89446444A146655665767C7
:103CF00016676246F0BDC0469446404A926F9208ED
:103D0000624601D258E0C046F0B53C4EB56F6D0832
:103D1000FCD3346E756E776F366F00F04DF89446B5
:103D2000364A14665566576716676246F0BDC04648
:103D3000002B24DB11D000293EDA00B5C9434042F4
:103D400000D1013100F038F8C943404200D10131BF
:103D5000DB43524200D1013300BD002AEBD10028E1
:103D600001D1002905D00020C90FC90701D1C043E6
:103D7000410800B503F02CFE0022002300BD00B571
:103D800000290ADBDB43524200D1013300F014F872
:103D9000C943404200D1013100BDC943404200D176
:103DA0000131DB43524200D1013300F005F8DB431F
:103DB000524200D1013300BD002923D1002B18D17C
:103DC000002A0CD0BC460D4F38667A6600210023CD
:103DD000FFE7FFE7FFE77A6F386F67467047002815
:103DE00001D00748010000B503F0F2FD00220023D6
:103DF00000BD02000B00002000217047000000D031
:103E0000FFFFFFFF002B00D0BFE0130C28D1002ADA
:103E1000E7D080B4114F39667A66FFE7FFE730B428
:103E2000040C7B6F396F1B0423433B667A66FFE704
:103E3000FFE7FFE7C04684B27B6F3D6F1B0423435F
:103E40003B667A66FFE7FFE7C04600232C042D0C93
:103E50007A6F386F00196941B0BC7047000000D01C
:103E6000F0B594460025140E01D112020835140F46
:103E700001D112010435940F01D192000235D40F03
:103E800001D152000135D40B0134254F7C66254CFD
:103E90003C660E0C93B2FFE7FFE7FFE73C6F66431B
:103EA000360C7703BE467343DF0B5B04C01AB9417F
:103EB000130C7343DB18C91ACE086643360CB6449C
:103EC00093B273431F0F1B01C01AB941130C734304
:103ED0001F0B1B05C01AB941860D8F023E43664376
:103EE000360C092D24DB520A7243801A7703460AE6
:103EF0006643360C16235B1BDE40DF40BF19644669
:103F00006643821B7046043506330100D940A84041
:103F1000C01900D30131A24206D20023F0BD000037
:103F2000000000D0FFFFFFFF121B0130F3D3F1E7C9
:103F300009277F1BFE406446A2B27243801A00D25A
:103F40000139220C7243130C1204821A99410B009E
:103F50007046043513370100F940A840801900D39A
:103F60000131002B02D1A2420AD2F0BD013000D3B0
:103F70000131121BFAD2013BF8D1A24200D2F0BDAE
:103F8000013000D30131121BF7E7F0B51C0C00D053
:103F900080E00CB400251C0A04D11B02160E33432A
:103FA000120208351C0B04D11B01160F33431201FA
:103FB00004359C0B04D19B00960F334392000235CD
:103FC000DC0B02D192185B4101351C00971864414B
:103FD0000134464F7C66464C3C660E0CFFE7FFE71B
:103FE000FFE7C0463C6F6643360C7703BE4697B288
:103FF0007743C01B00D20139C01B00D201399FB2E8
:104000007743C91BC91B170C77437E04FF0B801B2A
:10401000B941CE086643360C0C2D33DBB644120B87
:104020001F053A431B0B97B27743C01B00D20139DF
:104030009FB27743C91B170C77433E043F0C801B8C
:10404000B941860D8F023E43664329277F1BFE4000
:104050000C3D7746AF40BF1930BCA2B2ABB2724341
:104060007343801A9941220C7243130C1204801A74
:10407000994102000B000137001BA941F9D2781EBB
:104080000021F0BD0C277F1BFE4077467F0BAF4021
:10409000FF19E0E700245D1C07D0144F7D663966E8
:1040A000FFE7FFE7FFE7FFE73C6F95B29EB265438E
:1040B0006643401BB141150C1E0C65436643360434
:1040C0002F0C3E432D04401BB141994204D2020003
:1040D0000B0020000021F0BD01D19042F7D3801ADF
:1040E000994101349942F2D3F6E70000000000D074
:1040F000FFFFFFFF48404140484018B41B4B5B683E
:10410000FC46019308BD04DFCF43001018B4174BE1
:104110001B68FC46019308BD00DFD943001094469C
:10412000134A926F920809D2624618B40F4BDB68AB
:10413000FC46019308BD0CDF914600100C4AF0B517
:10414000146E556E576F166F6246FFF7EEFF084A02
:104150001466556657671667F0BD18B4034B9B6825
:10416000FC46019308BD08DF354500102C110020E6
:10417000000000D0FFB550404240504059404B40F5
:10418000594000E0FFB5154F4C00640D03D0BC4210
:1041900004D10C0314D80020090D09055C00640D3E
:1041A00003D0BC4204D11C030AD800221B0D1B05FE
:1041B00001264B4009D44B4003D58B4200D18242AB
:1041C000FFBD9942FCD19042FFBD0B43DB18034376
:1041D0001343F5D0C9434918FFBD0000FF07000095
:1041E00000B5FFF7CFFF804100BDC04600B5FFF727
:1041F000C9FF01D9002000BD012000BD00B5FFF7B7
:10420000B9FF01D9002000BD012000BD00B5FFF7B6
:10421000B1FF804100BD012040054A00121804D8BA
:104220005A00121801D80020704701207047002062
:10423000704700000021002805D17047C117484091
:10424000401AFAD0C90713B5064B1B6898470CBC37
:10425000441CA2401005120B0349091B0905194310
:10426000114310BD2C1200201F04000010B54C009B
:10427000620D8023D218DB00D21A5B057E2A10DD86
:104280009E3A13DACC170903490819435242D14028
:10429000640001341532202A05DAD0400843604317
:1042A00010BD002010BD0846604310BDC80FC018E7
:1042B000013810BD18B4044B5B6AFC46019308BD7D
:1042C00024DF4148001000002C11002070B513239A
:1042D0001C78012C14D0012C14DC022C02DC1F4AA7
:1042E0001F4B9A641F48FFF771FC1F4B186070BD8D
:1042F00099001A481A4A885001331F2BF8D9EAE767
:104300000023FAE71948FFF769FC05001848FFF792
:1043100065FC023803789B007F2B19DD8022290081
:104320000F4800F0ABFB022CD7D1124B1A88B523F3
:104330001B029A4209D1104B1A88104B9A4204D1A1
:104340000F4B1A880F4B9A42C7D00020FEF756F940
:104350000D4B0E4A32210E48FEF7B6F89543001079
:104360002C1100204C3300002C120020534400007C
:104370005346000054380000D83800004946000079
:104380009C3800005946000040890010FC8900104C
:10439000A089001007B56046002800D100BE018842
:1043A0000A0A0230DF2AFAD1C9B2820804D302888D
:1043B00040880004104300E00068024A5050039017
:1043C00007BD00002C1100200FB403BC0CBCF0B5DD
:1043D0000124E407634000E0F0B50C0DCF0F661E2A
:1043E0003605891B640503D3C943404200D301311C
:1043F000640D03D0661CF60A07D0E41B00207F0082
:10440000791C89078912803C24031D0DDF0F6E1E65
:1044100036059B1B6D0503D3DB43524200D30133AA
:104420006D0D03D06E1CF60A07D0ED1B00227F0035
:104430007B1C9B079B12803D2D032F1B661B58D4B2
:10444000A446202E46DA20371400BC401D00BD4093
:10445000F24033412A4380185941CB0F05D0C9435C
:10446000C043002264425041514162464D0D28D163
:104470000D0D07D100281FD0241940414941013AB0
:104480000D0DF9D0640006D3013000D30131002CAA
:1044900001D140084000013A0BD4941CE40A04D135
:1044A00012051144DB071944F0BDD907204B19430D
:1044B00000E0D9070020F0BD0029DDD1002CDBD1C0
:1044C000F0BD0132C6074008CD0728434908002E39
:1044D000E1D0D9E73C2E29DA203E40371400BC4019
:1044E00000D00124F24014431A00BB401C43D317F0
:1044F000ACE7AC46202F08DA20360400B4400D00AB
:10450000B540F84039412843A5E73C2F0CDA203F5D
:1045100040360400B44000D00124F84004430800B1
:10452000B1400C43C117EAE710001900002494E7DA
:104530000000F07FF0B50C0D661E3605891BE60AFB
:104540006405640D02D0651CED0A04D00020012131
:104550000905803C2403A4461C0D671E3F05DB1B98
:10456000E70A6405640D02D0651CED0A04D0002240
:1045700001231B05803C24037740644497B484B234
:1045800096B27443070C7E43150C6F4380B26843A8
:10459000361802D3012000043F183004350C0019EE
:1045A0007D41844688B29AB250430C0C62431F0C82
:1045B0007C438EB27E43921902D301263604A4199D
:1045C0001604170C3618674101BC81B29AB25143E8
:1045D000040C62431B0C5C4380B25843121802D394
:1045E0000120000424181004130C401863412D18F6
:1045F0005E410020474106BC88B293B258430C0C80
:104600006343120C544389B251435B1802D3012116
:104610000904641819041A0C091862416D185641EE
:104620000020474118BCF902720D1143F0026A0DD7
:104630001043ED020A0D03D16D1940414941013B80
:10464000124E9B1B7600B3420ED26D0007D3013091
:10465000002671416646354301D1400840001B05E4
:10466000C918E4072144F0BD0BDA013306D101304B
:1046700004D101314F0D01D04908F2E7E1070020D4
:10468000F0BD013631050020EBE70000FF0300001C
:10469000F0B51C0D671E3F05DB1BE70A6405640DC2
:1046A00002D0661CF60A04D0002201231B05803CC0
:1046B0002403D0252D060026F6432E661E096E66BD
:1046C000CE0FF619B44649004F0D02D07E1CF60AF3
:1046D00003D000200021403F3F033E1BB600B444FE
:1046E000013F7F05C91B49082E6F013676089C02E1
:1046F000950D25437543ED137543AD1301356D10CD
:10470000F603761B0CB4CC02450D2C43A2B2B3B217
:104710005A43270C7B43350C6F43A4B26C431B19DF
:1047200002D3012424043F191C041D0CA4187D414C
:1047300024196D41009A91B2ACB26143170C7C43CD
:104740002B0C5F4392B25A43A41802D301221204E5
:10475000BF182204230C52187B41019C6C431B1987
:10476000520ED9010A434401A01A81B2B2B2514398
:1047700003145A43360C734387B27743D617D219C2
:1047800000277E4136049B191704160C7F185E41E2
:104790007316ED18F301002680337541A90F06D179
:1047A0006400690AE8055B0A184309D22FE0042275
:1047B000944480337541A90AA8059B0A184326D35F
:1047C000404149412404009A019B0D005543641B5C
:1047D0004343E41A95B286B27543170C7E43030C2B
:1047E0005F4392B25A43B61802D301221204BF1893
:1047F0003204330C52197B4152429C41002C02D4AA
:104800000022013051414008CA071043490802B054
:104810006246D7079210084BD218084B9A4203D22F
:1048200012058918C919F0BD0020002A01DC3900E1
:10483000F0BD01331905F5E7FD030000FE07000098
:10484000002200B5203200F004F8080000BD00008E
:1048500000220B150AD410B5944600F031F8141458
:10486000013400DA0021CB17144C2047002000212E
:1048700070476244343A0CD40C2A07DA04009140A1
:10488000904052422032D440214310BDD843D943F6
:1048900010BD203207D40C469440524220321141C0
:1048A000D040204310BD0800C917203203D4524223
:1048B0002032104110BD1800190010BD73480010BF
:1048C0000A0DCC0F531E1B05C91A520503D3C94349
:1048D000404200D30131520D03D0531CDB0A07D0F4
:1048E000121B00206400611C89078912803A1203A0
:1048F000014BD21A70470000FF03000051434343AD
:10490000C9188C46110C83B24B4310B4040C61439C
:1049100092B280B2504362431C041B0C001910BCBD
:1049200059411304120CC0185141614470470000F2
:1049300070B513231D782A48FFF750F90400012DA4
:1049400011D0012D09DDA31E1B789B007F2B40DDBC
:1049500080222100234800F091F82348FFF736F920
:10496000224B186070BD542201001E4800F086F8EA
:104970001F4B1A881F4B9A421CD1A7239B011A88F0
:104980001D4B9A4216D11D4B1A881D4B9A4211D1CC
:104990001C4B1A8894239B019A420BD11A4B1A88FC
:1049A0001A4B9A4206D11A4B1A681A4B9A4201D1F5
:1049B000152307E01848FDF721FE99001748094A1A
:1049C000885001331F2BF8D9144A064B1A62DA615A
:1049D000B7E7134B134A42211348FDF775FDC04654
:1049E00053460000301200204C3300002C120020EF
:1049F000EE290000C40F0000C20D0000962B00003D
:104A0000C0B50000182B0000CC2A000010B5000033
:104A1000FC2C000051ED87644C8400102D4A0010DE
:104A2000108A0010A08A0010448A001007B5604662
:104A3000002800D100BE01880A0A0230DF2AFAD11C
:104A4000C9B2820804D3028840880004104300E001
:104A50000068024A5050039007BD00003012002049
:104A600001480421014B1847B0040020ED3B001021
:104A7000014B1B6818470000B0040020014B5B6825
:104A800018470000B004002010B503000800110012
:104A90001B68984710BD0000F8B507000D00160010
:104AA000437C002B02D0002400200CE0036811009E
:104AB000280098472DE03B7C10E0022115483B6818
:104AC0009847601C0134B44214DA002CF3DD2B1932
:104AD000013B1B780D3B5A425341DBB22A5D0A2A47
:104AE000F0D1002BEED1A042E7DA211A28183B685A
:104AF0009847E2E7B04203DA311A28183B68984732
:104B0000002E06DDAD19013D2B780D3B5A42534175
:104B10003B74F8BD188B001070B505000368002BBE
:104B200016D00C4B1C6805E0290004C92000FFF7D3
:104B3000B3FFE468002C09D02368002BF9D0064BA2
:104B40001B68002BF0D0A342F3D1EDE700232B60CC
:104B500070BDC046FC0C0020000D002070B50500A3
:104B60000C000B68802B05D021684B1C2360641857
:104B7000257170BD0800FFF7CFFFF5E710B582B0D3
:104B8000D0231B0600241C5701A9074802F030FF60
:104B9000002806D1019B9C4203D0034802F038FF55
:104BA000012002B010BDC0460005002010B502482B
:104BB00002F006FF10BDC04600050020F0B5CE464D
:104BC000474680B583B006000D0090461C00FFF7F5
:104BD000D5FF81466B1C05D0002C08D0194F1A4B0D
:104BE0001C6807E0300002F0B1FE0500F4E7174F43
:104BF000F5E7E468002C17D02368002BF9D0144B9C
:104C00001B68002B01D0A342F3D12A003100200001
:104C1000B8474346002BECD06B46D91D0A230B70D6
:104C200001222000B847E4E74B46002B07D16B1E5A
:104C30009D41E8B203B0C0BCB946B046F0BDFFF735
:104C4000B5FFF4E7894A0010FC0C0020994A0010D7
:104C5000000D0020094A01E00C331A001368002BF4
:104C600008D08342F8D1002907D1C368136000231C
:104C7000C36002E0002900D010607047FC0C0020E7
:104C800010B5064B1C6801E09847E468002C03D07F
:104C90006368002BF8D1F8E710BDC046FC0C00207B
:104CA00070B5050002F052FE04000023012201004D
:104CB0002800FFF783FFFFF7E3FF200070BD00002F
:104CC00070B5A2B004000E00FFF758FF0500842263
:104CD000002101A8FFF7CCFE3300220001A90848FB
:104CE000FEF75CFF040001A8FFF716FFFFF7C8FFFF
:104CF000002D02D1200022B070BDFFF757FFF9E769
:104D00005D4B00100FB400B583B004A901C9019137
:104D1000FFF7D6FF03B008BC04B0184710B500F089
:104D200053F910BD70470000014B00221A70704704
:104D3000671300204B79FF2B0CD18B79002B0BD103
:104D4000CB79012B0AD1082A0AD98A78054B1A7027
:104D5000092000E0002070470020FCE70020FAE76F
:104D60000020F8E7671300200120704770B50400A9
:104D70000D000348FEF72AFF030029002000984792
:104D80005542000010B5002926D1117953791B0234
:104D90000B43124909788B4201D0002010BD537893
:104DA000012B03D0022B10D00020F7E79178D378A5
:104DB0001B021943DB0503D54B0A0120984000E094
:104DC00000207F231940FFF7D1FF6422002100203B
:104DD000FDF71CFE0120E1E70120DFE7671300205B
:104DE00001230370004870471C8B001010B50B782E
:104DF0004878000218438A7812041043CB781B06C7
:104E000003439622D200934200D010BD0021080037
:104E1000FFF7ACFF30B583B005000C0001A91848BE
:104E200002F0E6FD002808D1D0231B061B68019A7A
:104E30009A4221D0124802F0EBFD002001F054FE0E
:104E4000002807D1032464420D4802F0B9FD200078
:104E500003B030BD002001F069FE002802D1032418
:104E60006442F1E722002900002001F06BFE041EDD
:104E7000EAD103246442E7E703246442E7E7C0463B
:104E80003413002010B50021054802F0B1FD0028C0
:104E900000D110BD01F0C0FB014802F091FDF8E720
:104EA00034130020F0B5C64600B582B080460D0030
:104EB00001A92E4802F09CFD002808D1D0231B0632
:104EC0001B68019A9A420FD0284802F0A1FD0020E9
:104ED00001F00AFE002847D1254B00200021186070
:104EE0005960224802F06CFD02B080BCB846F0BDAB
:104EF00001F092FB002001F039FE002001F0F4FDEA
:104F00000028EED0002001F0B3FE00281DD0AC42F6
:104F1000E7DA2E1B002001F0ABFE0200864200DC27
:104F20003200002AE4D043461919002001F084FE23
:104F3000060001F071FB002001F018FEA419FCF737
:104F400095FF0B4B18605960E1E7FCF78FFF084BAA
:104F50001E685F68074A002392197B419942C0D8B6
:104F6000D5D19042D3D9BCE70024D0E73413002038
:104F70002006002020A1070010B50A4B1A78D02384
:104F80001B061B689A4207D1074B1878FBF7F8FEFF
:104F9000FA208000002110BD044B054A322105484B
:104FA000FDF792FA6913002068130020348B00107B
:104FB000F08B00105C8B001010B5024B1878FBF7DB
:104FC000DFFE10BD6813002070B584B0D0231B062F
:104FD0001A782D4B1A702D4B1B7802F08FF82C4845
:104FE000FDF73CFA0120FCF789F9C0B2294C20708A
:104FF0002949FBF7E7FE20780121FBF7B9FE0520E0
:10500000FBF7CEFE041E0BD0002224490520FBF73F
:1050100003FF01212248FFF71DFE200004B070BDF0
:10502000FCF7FEFC0600FCF721FF04000D1E1EDB52
:105030000100FA229200002312196B419D4202D80E
:1050400004D1914202D901225242D317002B14DB22
:105050000121029100210191124900913000FCF7D9
:10506000F5FC431E9841C4B20028D6D0D1E70E4BC0
:105070000E4A3F210E48FDF727FA0B4B0B4A3F2102
:105080000B48FDF721FAC046691300202893001051
:105090003413002068130020854E0010B94F001013
:1050A000C0040020794F0010487A0010D88B0010FF
:1050B000647A0010004870477C8C001000487047EC
:1050C000288C001010B50400154B1B78002B0ED057
:1050D000002C11D1134B144A5A80012301335B0079
:1050E0001BB2C022920013430E48038010BD112151
:1050F0000B4802F0D7FBEBE7052C0ED8A4000B4BB6
:10510000E4580023122BE9D8E25C002AE6D00133F0
:10511000590004484252DBB2F4E70020E6E7C046FB
:105120004C130020D40C002009040000908C0010C7
:1051300002007F201040D209400080184001014B3E
:10514000C0187047040D002010B582B001AB074AAB
:105150001A80002406E001AB185DFFF7E9FF012388
:10516000C3700134012CF6D902B010BD0080FFFFDE
:1051700010B5838B3F333F229343022915D0124C45
:105180002268C260D31823609C0610D10F4C624085
:10519000634080246401A3420FD889061143802311
:1051A0001B0619434368196010BD5B00E7E7084B15
:1051B000084A54210848FDF787F9084B054A56214B
:1051C0000548FDF781F9C046081100200000105085
:1051D000A88C0010D48D0010D88C0010408D0010C9
:1051E000F8B505000E001400FFF7A2FF7F232B4047
:1051F000EF0985707A427A4142700022C27086833C
:105200008477012F0DD0DA0012498C466244826007
:10521000826800211160002B09D143600E4BC360EE
:10522000F8BDDA000D498C4662448260F0E7012F38
:1052300009D0013BDB000A4A9446634443602100E5
:10524000FFF796FFECE7013BDB00064A9446634418
:105250004360F4E7840010500001105080001050AB
:105260000C0010500800105010B5002308E0013366
:10527000DA00002108481150844662445160DBB2D4
:105280000E2BF4D9F022920000210448FFF7F0FB26
:10529000034B044A1A6010BD00001050440D00205A
:1052A0000811002080011050F0B5CE46474680B569
:1052B00083B01D4B9F6D0024012603E0B7437600A9
:1052C0000134E4B2002F29D01F2C27D83E42F6D05B
:1052D000164B9E65630899460123634001221A40DC
:1052E00090464B465D0045446D01114BED1828007A
:1052F00000F0ACFA0028E1D04B465B0043445B0170
:105300000B4AD3189A8A997801230093002300202E
:1053100000F00AFE280000F009FACFE703B0C0BC95
:10532000B946B046F0BDC0460000115000301150E3
:10533000040D002070B52B4A9823D45880235B02BB
:1053400025001D401C420AD1E30616D4E30419D4FB
:10535000630429D4230433D4A5423ED170BDFFF7A2
:10536000F3FE01222049002000F0C4FD1F4B8022E3
:1053700092021A6580256D02E6E710231D43FFF7B0
:1053800093FFE3E780235B011D43164B00221A6065
:10539000FFF76AFF01220021002000F096FD134B69
:1053A000802212031A65D3E78023DB011D4301220B
:1053B0000421002000F076FD0C4B10221A65C9E78D
:1053C00080231B021D4301220521002000F06AFDFD
:1053D000064B802212011A65BEE72900614004488D
:1053E000FDF70CF900001150000010500030115072
:1053F000748D001070B50C001500FFF799FE2A009F
:10540000210000F0FFF970BD10B5002804D1012182
:105410000520FBF7ADFC10BDB921034B034A490041
:105420000348FDF751F8C046888D0010C48D001068
:10543000D88C001010B5002805D100220021802052
:10544000FFF7D8FF10BDBF21024B034A49000348B4
:10545000FDF73AF8888D0010B48D0010D88C00103C
:10546000024B80225202DA647047C046002011507D
:1054700070B5041E25D100F033F9154D0C23AB6730
:1054800014490520FBF79EFC402200211248FFF73B
:10549000EFFA002240210020FFF7A2FE0022402167
:1054A0008020FFF79DFEFFF7DFFE01232B648023A2
:1054B0009B05EB649023094AEA502000FFF7D0FFD8
:1054C00070BD4E21064B074AFF310748FCF7FCFF31
:1054D0000000115035530010040D002010D00100C1
:1054E000888D0010E88D0010D88C00100B785B06BA
:1054F00002D14B78052B00D070478A78014B1A6097
:10550000FAE7C0460000115010B50C0000280DD17C
:105510000A794B790721194009021143E278920771
:10552000920FA078FFF75CFE012010BDD621034B3F
:10553000034A49000348FCF7C7FFC046888D0010A6
:10554000A48D0010D88C001010B5FFF78DFE10BD93
:1055500010B50400080011001A00002C03D1FFF759
:1055600049FF012010BDBC21024B034AFF31034813
:10557000FCF7AAFF888D0010948D0010D88C0010C5
:1055800010B508004B0605D1CB09012B0AD0022229
:10559000054B9A66FFF7CCFD80221201002100F036
:1055A000CBF810BD0122F3E70020115010B5080020
:1055B0004B0600D110BDFFF7BBFD0023C3700022D6
:1055C000014900F0B9F8F5E7FFF7FFFFF8B504006F
:1055D0000F00438A828B1E1C934200D9161CB6B260
:1055E0009B1B63828025ED003543E378002B13D0AD
:1055F00080229201154301225340E3706378002B0F
:105600000CD0638A002B02D18023DB011D43002FC5
:1056100000D02D042800F8BD0022EBE7B801E368B4
:105620009C4660443200A169FFF728FAA3699C46B2
:105630006644A66180231B021D43E2E770B50400A7
:1056400083681B68002900D01B0C9D05AD0D627896
:10565000002A11D11B0409D4A38A5B19A382A38B4E
:10566000AB4201D900236382280070BD0E4B0F4A64
:10567000D7210F48FCF728FF1B040ED58901E368EA
:105680009C4661442A00A069FFF7F8F9A38A5B19D8
:10569000A382A3695B19A361E1E7064B034ADE21FC
:1056A0000348FCF711FFC046F48D0010288F00104E
:1056B000148E00107C8E001010B5040083681B68E7
:1056C0000021FFF7BBFF63681B685B0002D5A38B5B
:1056D000834200D010BD01212000FFF7AFFFF9E7A2
:1056E00010B580235B040C4A13600C4A13600C4B0A
:1056F0009A6880235B049343F9D10A4C9C220021D1
:105700002000FFF7B5F98022520100210648FFF77B
:10571000AFF90923636710BD00E0004000F00040CE
:1057200000C000400000115000001050002303741E
:10573000438283828361704710B5002902D0836859
:105740001B681940002A0FD0114353050CD58268FD
:1057500013685B050BD40B4B0B401360FFE7FFE7AF
:10576000FFE7FFE7FFE7FFE78368196010BD837875
:105770007F211940DB099B00034A9A580348FCF734
:105780003DFFC046FFFBFFFFD40400209C8E0010AD
:1057900070B5040043681E680021FFF717FF8025DD
:1057A0006D010543144B1B6C9B0704D4A378DB09E4
:1057B00014D1013300E00023628A002A01D0002BBB
:1057C0000ED00E4B1E4080239B053343626813604E
:1057D0002A0000212000FFF7AFFF70BD0023EBE798
:1057E00001212000FFF7F2FE0543054B1E40A023D8
:1057F000DB053343EAE7C04600001150FFFFFFAF6F
:10580000FFFFFFDF70B504000D001600037C002BC6
:1058100009D166820023A38201332374A56120008D
:10582000FFF7B6FF70BD83787F211940DB099B002D
:10583000044A9A580448FFF765FA2000FFF776FFFC
:10584000E7E7C046D4040020BC8E001070B5040009
:10585000057C002D06D0FFF72FFF638A002B08D1AF
:10586000280070BD81787F231940044A0448FCF762
:10587000C5FE2000FFF78CFF0025F1E7D4040020CF
:10588000F48E001070B5050000240EE063001B19B3
:10589000DA00184B1B689B1802E0230010E000237D
:1058A0005B68280098470134E4B2134B1B78A3428D
:1058B0000ED3124A002AF0D0A342E7D8E31ADBB293
:1058C000002BECD15A00D218D2000D4B9B18E7E701
:1058D0000C4C532200212000FFF7CAF8E01C1022D4
:1058E000FF21FFF7C5F8200013302022FF21FFF72A
:1058F000BFF870BD0407002062130020E14D0010C6
:10590000709000103C0A002010B5FFF7BBFF01F0BB
:105910002BF810BD70B505000C001600C86801F02A
:105920002DF8E368320000212800984770BD000080
:10593000F0B5DE4657464E464546E0B583B0814653
:105940000139C8B2FFF7BAFB002803D04378984664
:10595000022B0CD0564A57495748FFF7D3F900207D
:1059600003B0F0BCBB46B246A946A046F0BDC5791F
:105970006A11012351491A4014010A781026B243D2
:1059800022430A70AD112B405B01D2B22024A24306
:1059900013430B70070009378178C3781B020B4350
:1059A00082469A4463E0FB789B463B78FF1865E0AB
:1059B000434A40494048FFF7A5F90020D0E7660078
:1059C0003619F3003F4A1668F61802E0230017E084
:1059D00000262A0039004846B368984701900828F5
:1059E00001D9854214D20134E4B2374B1B78A3426B
:1059F00039D3364A002AE9D0A342E0D8E31ADBB211
:105A0000002BE5D15E00F318DB00314EF618E0E71D
:105A10005B46012B10D0002293451AD9BB789B1806
:105A2000DBB22649C918C978FF290BD12349CB1805
:105A3000DC700132D2B2EFE7B268264B9A42EAD16B
:105A4000C346E8E7244A1B491B48FFF75BF90020DF
:105A500086E71A482300019D2A003900133001F01F
:105A6000BBFBAC466744184B1B78A3420ED357458B
:105A700014D27B780B2B96D001239B467B78042B8A
:105A800096D15346DD1BADB20024AEE7F32292005F
:105A900008490948FFF736F9002061E70F4B002B52
:105AA00003D000E000BF01205AE7012058E7C046BC
:105AB0007B03000038900010388F00103C0A002053
:105AC000960300000407002062130020E14D00103F
:105AD000709000108D6D0010BD03000000000000EC
